{
  "contractName": "AlastriaIdentityManager",
  "abi": [
    {
      "constant": true,
      "inputs": [
        {
          "name": "",
          "type": "address"
        }
      ],
      "name": "identityKeys",
      "outputs": [
        {
          "name": "",
          "type": "address"
        }
      ],
      "payable": false,
      "stateMutability": "view",
      "type": "function"
    },
    {
      "constant": true,
      "inputs": [
        {
          "name": "_identityIssuer",
          "type": "address"
        }
      ],
      "name": "getEidasLevel",
      "outputs": [
        {
          "name": "",
          "type": "uint8"
        }
      ],
      "payable": false,
      "stateMutability": "view",
      "type": "function"
    },
    {
      "constant": false,
      "inputs": [
        {
          "name": "_identityServiceProvider",
          "type": "address"
        }
      ],
      "name": "addIdentityServiceProvider",
      "outputs": [],
      "payable": false,
      "stateMutability": "nonpayable",
      "type": "function"
    },
    {
      "constant": false,
      "inputs": [
        {
          "name": "_addressEntity",
          "type": "address"
        },
        {
          "name": "_url_logo",
          "type": "string"
        }
      ],
      "name": "setUrlLogo",
      "outputs": [],
      "payable": false,
      "stateMutability": "nonpayable",
      "type": "function"
    },
    {
      "constant": false,
      "inputs": [
        {
          "name": "newOwner",
          "type": "address"
        }
      ],
      "name": "transfer",
      "outputs": [],
      "payable": false,
      "stateMutability": "nonpayable",
      "type": "function"
    },
    {
      "constant": false,
      "inputs": [
        {
          "name": "_addressEntity",
          "type": "address"
        },
        {
          "name": "_cif",
          "type": "string"
        }
      ],
      "name": "setCifEntity",
      "outputs": [],
      "payable": false,
      "stateMutability": "nonpayable",
      "type": "function"
    },
    {
      "constant": true,
      "inputs": [
        {
          "name": "",
          "type": "address"
        }
      ],
      "name": "pendingIDs",
      "outputs": [
        {
          "name": "",
          "type": "uint256"
        }
      ],
      "payable": false,
      "stateMutability": "view",
      "type": "function"
    },
    {
      "constant": true,
      "inputs": [
        {
          "name": "addr",
          "type": "address"
        }
      ],
      "name": "isOwner",
      "outputs": [
        {
          "name": "",
          "type": "bool"
        }
      ],
      "payable": false,
      "stateMutability": "view",
      "type": "function"
    },
    {
      "constant": false,
      "inputs": [
        {
          "name": "_identityServiceProvider",
          "type": "address"
        }
      ],
      "name": "deleteIdentityServiceProvider",
      "outputs": [],
      "payable": false,
      "stateMutability": "nonpayable",
      "type": "function"
    },
    {
      "constant": true,
      "inputs": [],
      "name": "alastriaPresentationRegistry",
      "outputs": [
        {
          "name": "",
          "type": "address"
        }
      ],
      "payable": false,
      "stateMutability": "view",
      "type": "function"
    },
    {
      "constant": false,
      "inputs": [
        {
          "name": "_identityIssuer",
          "type": "address"
        },
        {
          "name": "_level",
          "type": "uint8"
        }
      ],
      "name": "updateIdentityIssuerEidasLevel",
      "outputs": [],
      "payable": false,
      "stateMutability": "nonpayable",
      "type": "function"
    },
    {
      "constant": false,
      "inputs": [
        {
          "name": "_addressEntity",
          "type": "address"
        },
        {
          "name": "_url_createAID",
          "type": "string"
        }
      ],
      "name": "setUrlCreateAID",
      "outputs": [],
      "payable": false,
      "stateMutability": "nonpayable",
      "type": "function"
    },
    {
      "constant": true,
      "inputs": [],
      "name": "version",
      "outputs": [
        {
          "name": "",
          "type": "uint256"
        }
      ],
      "payable": false,
      "stateMutability": "view",
      "type": "function"
    },
    {
      "constant": true,
      "inputs": [
        {
          "name": "_identityIssuer",
          "type": "address"
        }
      ],
      "name": "isIdentityIssuer",
      "outputs": [
        {
          "name": "",
          "type": "bool"
        }
      ],
      "payable": false,
      "stateMutability": "view",
      "type": "function"
    },
    {
      "constant": true,
      "inputs": [],
      "name": "entitiesList",
      "outputs": [
        {
          "name": "",
          "type": "address[]"
        }
      ],
      "payable": false,
      "stateMutability": "view",
      "type": "function"
    },
    {
      "constant": true,
      "inputs": [
        {
          "name": "_addressEntity",
          "type": "address"
        }
      ],
      "name": "getEntity",
      "outputs": [
        {
          "name": "_name",
          "type": "string"
        },
        {
          "name": "_cif",
          "type": "string"
        },
        {
          "name": "_url_logo",
          "type": "string"
        },
        {
          "name": "_url_createAID",
          "type": "string"
        },
        {
          "name": "_url_AOA",
          "type": "string"
        },
        {
          "name": "_active",
          "type": "bool"
        }
      ],
      "payable": false,
      "stateMutability": "view",
      "type": "function"
    },
    {
      "constant": false,
      "inputs": [
        {
          "name": "_identityIssuer",
          "type": "address"
        },
        {
          "name": "_level",
          "type": "uint8"
        }
      ],
      "name": "addIdentityIssuer",
      "outputs": [],
      "payable": false,
      "stateMutability": "nonpayable",
      "type": "function"
    },
    {
      "constant": true,
      "inputs": [],
      "name": "owner",
      "outputs": [
        {
          "name": "",
          "type": "address"
        }
      ],
      "payable": false,
      "stateMutability": "view",
      "type": "function"
    },
    {
      "constant": false,
      "inputs": [
        {
          "name": "_addressEntity",
          "type": "address"
        },
        {
          "name": "_url_AOA",
          "type": "string"
        }
      ],
      "name": "setUrlAOA",
      "outputs": [],
      "payable": false,
      "stateMutability": "nonpayable",
      "type": "function"
    },
    {
      "constant": false,
      "inputs": [
        {
          "name": "_addressEntity",
          "type": "address"
        },
        {
          "name": "_name",
          "type": "string"
        },
        {
          "name": "_cif",
          "type": "string"
        },
        {
          "name": "_url_logo",
          "type": "string"
        },
        {
          "name": "_url_createAID",
          "type": "string"
        },
        {
          "name": "_url_AOA",
          "type": "string"
        },
        {
          "name": "_active",
          "type": "bool"
        }
      ],
      "name": "addEntity",
      "outputs": [],
      "payable": false,
      "stateMutability": "nonpayable",
      "type": "function"
    },
    {
      "constant": false,
      "inputs": [
        {
          "name": "_identityIssuer",
          "type": "address"
        }
      ],
      "name": "deleteIdentityIssuer",
      "outputs": [],
      "payable": false,
      "stateMutability": "nonpayable",
      "type": "function"
    },
    {
      "constant": true,
      "inputs": [
        {
          "name": "_identityServiceProvider",
          "type": "address"
        }
      ],
      "name": "isIdentityServiceProvider",
      "outputs": [
        {
          "name": "",
          "type": "bool"
        }
      ],
      "payable": false,
      "stateMutability": "view",
      "type": "function"
    },
    {
      "constant": true,
      "inputs": [],
      "name": "alastriaCredentialRegistry",
      "outputs": [
        {
          "name": "",
          "type": "address"
        }
      ],
      "payable": false,
      "stateMutability": "view",
      "type": "function"
    },
    {
      "constant": false,
      "inputs": [
        {
          "name": "_addressEntity",
          "type": "address"
        },
        {
          "name": "_name",
          "type": "string"
        }
      ],
      "name": "setNameEntity",
      "outputs": [],
      "payable": false,
      "stateMutability": "nonpayable",
      "type": "function"
    },
    {
      "constant": true,
      "inputs": [],
      "name": "alastriaPublicKeyRegistry",
      "outputs": [
        {
          "name": "",
          "type": "address"
        }
      ],
      "payable": false,
      "stateMutability": "view",
      "type": "function"
    },
    {
      "inputs": [
        {
          "name": "_version",
          "type": "uint256"
        }
      ],
      "payable": false,
      "stateMutability": "nonpayable",
      "type": "constructor"
    },
    {
      "anonymous": false,
      "inputs": [
        {
          "indexed": true,
          "name": "signAddress",
          "type": "address"
        }
      ],
      "name": "PreparedAlastriaID",
      "type": "event"
    },
    {
      "anonymous": false,
      "inputs": [
        {
          "indexed": true,
          "name": "method",
          "type": "string"
        }
      ],
      "name": "OperationWasNotSupported",
      "type": "event"
    },
    {
      "anonymous": false,
      "inputs": [
        {
          "indexed": true,
          "name": "identity",
          "type": "address"
        },
        {
          "indexed": true,
          "name": "creator",
          "type": "address"
        },
        {
          "indexed": false,
          "name": "owner",
          "type": "address"
        }
      ],
      "name": "IdentityCreated",
      "type": "event"
    },
    {
      "anonymous": false,
      "inputs": [
        {
          "indexed": true,
          "name": "oldAccount",
          "type": "address"
        },
        {
          "indexed": false,
          "name": "newAccount",
          "type": "address"
        },
        {
          "indexed": true,
          "name": "serviceProvider",
          "type": "address"
        }
      ],
      "name": "IdentityRecovered",
      "type": "event"
    },
    {
      "constant": false,
      "inputs": [
        {
          "name": "_signAddress",
          "type": "address"
        }
      ],
      "name": "prepareAlastriaID",
      "outputs": [],
      "payable": false,
      "stateMutability": "nonpayable",
      "type": "function"
    },
    {
      "constant": false,
      "inputs": [
        {
          "name": "addPublicKeyCallData",
          "type": "bytes"
        }
      ],
      "name": "createAlastriaIdentity",
      "outputs": [],
      "payable": false,
      "stateMutability": "nonpayable",
      "type": "function"
    },
    {
      "constant": false,
      "inputs": [
        {
          "name": "_destination",
          "type": "address"
        },
        {
          "name": "_value",
          "type": "uint256"
        },
        {
          "name": "_data",
          "type": "bytes"
        }
      ],
      "name": "delegateCall",
      "outputs": [],
      "payable": false,
      "stateMutability": "nonpayable",
      "type": "function"
    },
    {
      "constant": false,
      "inputs": [
        {
          "name": "accountLost",
          "type": "address"
        },
        {
          "name": "newAccount",
          "type": "address"
        }
      ],
      "name": "recoverAccount",
      "outputs": [],
      "payable": false,
      "stateMutability": "nonpayable",
      "type": "function"
    }
  ],
  "bytecode": "0x60806040526127106006553480156200001757600080fd5b5060405160208062006d048339810180604052810190808051906020019092919050505060008060016000803373ffffffffffffffffffffffffffffffffffffffff1673ffffffffffffffffffffffffffffffffffffffff16815260200190815260200160002060006101000a81548160ff02191690831515021790555060048160000160006101000a81548160ff02191690836004811115620000b757fe5b021790555060018160000160016101000a81548160ff02191690831515021790555080600160003373ffffffffffffffffffffffffffffffffffffffff1673ffffffffffffffffffffffffffffffffffffffff1681526020019081526020016000206000820160009054906101000a900460ff168160000160006101000a81548160ff021916908360048111156200014b57fe5b02179055506000820160019054906101000a900460ff168160000160016101000a81548160ff0219169083151502179055509050505060018160050160006101000a81548160ff02191690831515021790555080600260003373ffffffffffffffffffffffffffffffffffffffff1673ffffffffffffffffffffffffffffffffffffffff168152602001908152602001600020600082018160000190805460018160011615610100020316600290046200020792919062000510565b50600182018160010190805460018160011615610100020316600290046200023192919062000510565b50600282018160020190805460018160011615610100020316600290046200025b92919062000510565b50600382018160030190805460018160011615610100020316600290046200028592919062000510565b5060048201816004019080546001816001161561010002031660029004620002af92919062000510565b506005820160009054906101000a900460ff168160050160006101000a81548160ff0219169083151502179055509050505033600460006101000a81548173ffffffffffffffffffffffffffffffffffffffff021916908373ffffffffffffffffffffffffffffffffffffffff160217905550806005819055506000620003356200059e565b808273ffffffffffffffffffffffffffffffffffffffff1673ffffffffffffffffffffffffffffffffffffffff168152602001915050604051809103906000f08015801562000388573d6000803e3d6000fd5b50600760006101000a81548173ffffffffffffffffffffffffffffffffffffffff021916908373ffffffffffffffffffffffffffffffffffffffff1602179055506000620003d5620005af565b808273ffffffffffffffffffffffffffffffffffffffff1673ffffffffffffffffffffffffffffffffffffffff168152602001915050604051809103906000f08015801562000428573d6000803e3d6000fd5b50600860006101000a81548173ffffffffffffffffffffffffffffffffffffffff021916908373ffffffffffffffffffffffffffffffffffffffff160217905550600062000475620005c0565b808273ffffffffffffffffffffffffffffffffffffffff1673ffffffffffffffffffffffffffffffffffffffff168152602001915050604051809103906000f080158015620004c8573d6000803e3d6000fd5b50600960006101000a81548173ffffffffffffffffffffffffffffffffffffffff021916908373ffffffffffffffffffffffffffffffffffffffff16021790555050620005f9565b828054600181600116156101000203166002900490600052602060002090601f016020900481019282601f106200054b57805485556200058b565b828001600101855582156200058b57600052602060002091601f016020900482015b828111156200058a5782548255916001019190600101906200056d565b5b5090506200059a9190620005d1565b5090565b60405161127780620039c283390190565b6040516112498062004c3983390190565b604051610e828062005e8283390190565b620005f691905b80821115620005f2576000816000905550600101620005d8565b5090565b90565b6133b980620006096000396000f300608060405260043610610175576000357c0100000000000000000000000000000000000000000000000000000000900463ffffffff1680630c91465e1461017a5780630e5a4fbb146101fd5780630ebbbffc146102625780630ff72ef2146102a55780631a6952301461032e5780631e5f6f01146103715780632773d0fa146103fa5780632f54bf6e146104515780633bf47215146104ac57806343eedc70146104ef578063449636101461054657806345748b42146105965780634b7a1859146105d957806354fd4d5014610662578063597b2e9b1461068d5780636554adf0146107205780636d69d99a1461077b5780636e7a216b146107e457806375894e8c14610850578063889776a814610ac75780638da5cb5b14610b175780638e672cf714610b6e578063c4c0233314610bf7578063c71cbcf314610da4578063cb69159914610e07578063d024d9a414610e4a578063dcc30e3514610ea5578063eb5c426c14610efc578063f014cd4114610f85575b600080fd5b34801561018657600080fd5b506101bb600480360381019080803573ffffffffffffffffffffffffffffffffffffffff169060200190929190505050610fdc565b604051808273ffffffffffffffffffffffffffffffffffffffff1673ffffffffffffffffffffffffffffffffffffffff16815260200191505060405180910390f35b34801561020957600080fd5b5061023e600480360381019080803573ffffffffffffffffffffffffffffffffffffffff16906020019092919050505061100f565b6040518082600481111561024e57fe5b60ff16815260200191505060405180910390f35b34801561026e57600080fd5b506102a3600480360381019080803573ffffffffffffffffffffffffffffffffffffffff1690602001909291905050506110c5565b005b3480156102b157600080fd5b5061032c600480360381019080803573ffffffffffffffffffffffffffffffffffffffff169060200190929190803590602001908201803590602001908080601f016020809104026020016040519081016040528093929190818152602001838380828437820191505050505050919291929050505061114c565b005b34801561033a57600080fd5b5061036f600480360381019080803573ffffffffffffffffffffffffffffffffffffffff16906020019092919050505061120b565b005b34801561037d57600080fd5b506103f8600480360381019080803573ffffffffffffffffffffffffffffffffffffffff169060200190929190803590602001908201803590602001908080601f0160208091040260200160405190810160405280939291908181526020018383808284378201915050505050509192919290505050611299565b005b34801561040657600080fd5b5061043b600480360381019080803573ffffffffffffffffffffffffffffffffffffffff169060200190929190505050611358565b6040518082815260200191505060405180910390f35b34801561045d57600080fd5b50610492600480360381019080803573ffffffffffffffffffffffffffffffffffffffff169060200190929190505050611370565b604051808215151515815260200191505060405180910390f35b3480156104b857600080fd5b506104ed600480360381019080803573ffffffffffffffffffffffffffffffffffffffff1690602001909291905050506113ca565b005b3480156104fb57600080fd5b50610504611450565b604051808273ffffffffffffffffffffffffffffffffffffffff1673ffffffffffffffffffffffffffffffffffffffff16815260200191505060405180910390f35b34801561055257600080fd5b50610594600480360381019080803573ffffffffffffffffffffffffffffffffffffffff169060200190929190803560ff169060200190929190505050611476565b005b3480156105a257600080fd5b506105d7600480360381019080803573ffffffffffffffffffffffffffffffffffffffff16906020019092919050505061160e565b005b3480156105e557600080fd5b50610660600480360381019080803573ffffffffffffffffffffffffffffffffffffffff169060200190929190803590602001908201803590602001908080601f01602080910402602001604051908101604052809392919081815260200183838082843782019150505050505091929192905050506116f9565b005b34801561066e57600080fd5b506106776117b8565b6040518082815260200191505060405180910390f35b34801561069957600080fd5b5061071e600480360381019080803573ffffffffffffffffffffffffffffffffffffffff16906020019092919080359060200190929190803590602001908201803590602001908080601f01602080910402602001604051908101604052809392919081815260200183838082843782019150505050505091929192905050506117be565b005b34801561072c57600080fd5b50610761600480360381019080803573ffffffffffffffffffffffffffffffffffffffff1690602001909291905050506119ea565b604051808215151515815260200191505060405180910390f35b34801561078757600080fd5b506107e2600480360381019080803590602001908201803590602001908080601f0160208091040260200160405190810160405280939291908181526020018383808284378201915050505050509192919290505050611a43565b005b3480156107f057600080fd5b506107f9611d56565b6040518080602001828103825283818151815260200191508051906020019060200280838360005b8381101561083c578082015181840152602081019050610821565b505050509050019250505060405180910390f35b34801561085c57600080fd5b50610891600480360381019080803573ffffffffffffffffffffffffffffffffffffffff169060200190929190505050611de4565b6040518080602001806020018060200180602001806020018715151515815260200186810386528c818151815260200191508051906020019080838360005b838110156108eb5780820151818401526020810190506108d0565b50505050905090810190601f1680156109185780820380516001836020036101000a031916815260200191505b5086810385528b818151815260200191508051906020019080838360005b83811015610951578082015181840152602081019050610936565b50505050905090810190601f16801561097e5780820380516001836020036101000a031916815260200191505b5086810384528a818151815260200191508051906020019080838360005b838110156109b757808201518184015260208101905061099c565b50505050905090810190601f1680156109e45780820380516001836020036101000a031916815260200191505b50868103835289818151815260200191508051906020019080838360005b83811015610a1d578082015181840152602081019050610a02565b50505050905090810190601f168015610a4a5780820380516001836020036101000a031916815260200191505b50868103825288818151815260200191508051906020019080838360005b83811015610a83578082015181840152602081019050610a68565b50505050905090810190601f168015610ab05780820380516001836020036101000a031916815260200191505b509b50505050505050505050505060405180910390f35b348015610ad357600080fd5b50610b15600480360381019080803573ffffffffffffffffffffffffffffffffffffffff169060200190929190803560ff16906020019092919050505061229a565b005b348015610b2357600080fd5b50610b2c6124ad565b604051808273ffffffffffffffffffffffffffffffffffffffff1673ffffffffffffffffffffffffffffffffffffffff16815260200191505060405180910390f35b348015610b7a57600080fd5b50610bf5600480360381019080803573ffffffffffffffffffffffffffffffffffffffff169060200190929190803590602001908201803590602001908080601f01602080910402602001604051908101604052809392919081815260200183838082843782019150505050505091929192905050506124d3565b005b348015610c0357600080fd5b50610da2600480360381019080803573ffffffffffffffffffffffffffffffffffffffff169060200190929190803590602001908201803590602001908080601f0160208091040260200160405190810160405280939291908181526020018383808284378201915050505050509192919290803590602001908201803590602001908080601f0160208091040260200160405190810160405280939291908181526020018383808284378201915050505050509192919290803590602001908201803590602001908080601f0160208091040260200160405190810160405280939291908181526020018383808284378201915050505050509192919290803590602001908201803590602001908080601f0160208091040260200160405190810160405280939291908181526020018383808284378201915050505050509192919290803590602001908201803590602001908080601f0160208091040260200160405190810160405280939291908181526020018383808284378201915050505050509192919290803515159060200190929190505050612592565b005b348015610db057600080fd5b50610e05600480360381019080803573ffffffffffffffffffffffffffffffffffffffff169060200190929190803573ffffffffffffffffffffffffffffffffffffffff169060200190929190505050612914565b005b348015610e1357600080fd5b50610e48600480360381019080803573ffffffffffffffffffffffffffffffffffffffff169060200190929190505050612b62565b005b348015610e5657600080fd5b50610e8b600480360381019080803573ffffffffffffffffffffffffffffffffffffffff169060200190929190505050612c49565b604051808215151515815260200191505060405180910390f35b348015610eb157600080fd5b50610eba612c9e565b604051808273ffffffffffffffffffffffffffffffffffffffff1673ffffffffffffffffffffffffffffffffffffffff16815260200191505060405180910390f35b348015610f0857600080fd5b50610f83600480360381019080803573ffffffffffffffffffffffffffffffffffffffff169060200190929190803590602001908201803590602001908080601f0160208091040260200160405190810160405280939291908181526020018383808284378201915050505050509192919290505050612cc4565b005b348015610f9157600080fd5b50610f9a612d83565b604051808273ffffffffffffffffffffffffffffffffffffffff1673ffffffffffffffffffffffffffffffffffffffff16815260200191505060405180910390f35b600a6020528060005260406000206000915054906101000a900473ffffffffffffffffffffffffffffffffffffffff1681565b600081600160008273ffffffffffffffffffffffffffffffffffffffff1673ffffffffffffffffffffffffffffffffffffffff16815260200190815260200160002060000160019054906101000a900460ff16151561106d57600080fd5b600160008473ffffffffffffffffffffffffffffffffffffffff1673ffffffffffffffffffffffffffffffffffffffff16815260200190815260200160002060000160009054906101000a900460ff16915050919050565b336110cf81612c49565b15156110da57600080fd5b816110e481612c49565b1515156110f057600080fd5b60016000808573ffffffffffffffffffffffffffffffffffffffff1673ffffffffffffffffffffffffffffffffffffffff16815260200190815260200160002060006101000a81548160ff021916908315150217905550505050565b8160011515600260008373ffffffffffffffffffffffffffffffffffffffff1673ffffffffffffffffffffffffffffffffffffffff16815260200190815260200160002060050160009054906101000a900460ff1615151415156111af57600080fd5b81600260008573ffffffffffffffffffffffffffffffffffffffff1673ffffffffffffffffffffffffffffffffffffffff1681526020019081526020016000206002019080519060200190611205929190612da9565b50505050565b61121433611370565b151561121f57600080fd5b3073ffffffffffffffffffffffffffffffffffffffff168173ffffffffffffffffffffffffffffffffffffffff161415156112965780600460006101000a81548173ffffffffffffffffffffffffffffffffffffffff021916908373ffffffffffffffffffffffffffffffffffffffff1602179055505b50565b8160011515600260008373ffffffffffffffffffffffffffffffffffffffff1673ffffffffffffffffffffffffffffffffffffffff16815260200190815260200160002060050160009054906101000a900460ff1615151415156112fc57600080fd5b81600260008573ffffffffffffffffffffffffffffffffffffffff1673ffffffffffffffffffffffffffffffffffffffff1681526020019081526020016000206001019080519060200190611352929190612da9565b50505050565b600b6020528060005260406000206000915090505481565b6000600460009054906101000a900473ffffffffffffffffffffffffffffffffffffffff1673ffffffffffffffffffffffffffffffffffffffff168273ffffffffffffffffffffffffffffffffffffffff16149050919050565b806113d481612c49565b15156113df57600080fd5b336113e981612c49565b15156113f457600080fd5b60008060008573ffffffffffffffffffffffffffffffffffffffff1673ffffffffffffffffffffffffffffffffffffffff16815260200190815260200160002060006101000a81548160ff021916908315150217905550505050565b600860009054906101000a900473ffffffffffffffffffffffffffffffffffffffff1681565b60008180600481111561148557fe5b73__Eidas_________________________________630fa78bf790916040518263ffffffff167c0100000000000000000000000000000000000000000000000000000000028152600401808260048111156114dc57fe5b60ff16815260200191505060206040518083038186803b1580156114ff57600080fd5b505af4158015611513573d6000803e3d6000fd5b505050506040513d602081101561152957600080fd5b8101908080519060200190929190505050151561154557600080fd5b83600160008273ffffffffffffffffffffffffffffffffffffffff1673ffffffffffffffffffffffffffffffffffffffff16815260200190815260200160002060000160019054906101000a900460ff1615156115a157600080fd5b600160008673ffffffffffffffffffffffffffffffffffffffff1673ffffffffffffffffffffffffffffffffffffffff1681526020019081526020016000209250838360000160006101000a81548160ff0219169083600481111561160257fe5b02179055505050505050565b33600160008273ffffffffffffffffffffffffffffffffffffffff1673ffffffffffffffffffffffffffffffffffffffff16815260200190815260200160002060000160019054906101000a900460ff16151561166a57600080fd5b6006544201600b60008473ffffffffffffffffffffffffffffffffffffffff1673ffffffffffffffffffffffffffffffffffffffff168152602001908152602001600020819055508173ffffffffffffffffffffffffffffffffffffffff167fb95ece7391a260096614d2b042c6cca83dcc5d131f72bc57a157ee2502e7ce5360405160405180910390a25050565b8160011515600260008373ffffffffffffffffffffffffffffffffffffffff1673ffffffffffffffffffffffffffffffffffffffff16815260200190815260200160002060050160009054906101000a900460ff16151514151561175c57600080fd5b81600260008573ffffffffffffffffffffffffffffffffffffffff1673ffffffffffffffffffffffffffffffffffffffff16815260200190815260200160002060030190805190602001906117b2929190612da9565b50505050565b60055481565b60008073ffffffffffffffffffffffffffffffffffffffff16600a60003373ffffffffffffffffffffffffffffffffffffffff1673ffffffffffffffffffffffffffffffffffffffff16815260200190815260200160002060009054906101000a900473ffffffffffffffffffffffffffffffffffffffff1673ffffffffffffffffffffffffffffffffffffffff161415151561185a57600080fd5b600a60003373ffffffffffffffffffffffffffffffffffffffff1673ffffffffffffffffffffffffffffffffffffffff16815260200190815260200160002060009054906101000a900473ffffffffffffffffffffffffffffffffffffffff1690508073ffffffffffffffffffffffffffffffffffffffff1663d7f31eb98585856040518463ffffffff167c0100000000000000000000000000000000000000000000000000000000028152600401808473ffffffffffffffffffffffffffffffffffffffff1673ffffffffffffffffffffffffffffffffffffffff16815260200183815260200180602001828103825283818151815260200191508051906020019080838360005b8381101561197e578082015181840152602081019050611963565b50505050905090810190601f1680156119ab5780820380516001836020036101000a031916815260200191505b50945050505050600060405180830381600087803b1580156119cc57600080fd5b505af11580156119e0573d6000803e3d6000fd5b5050505050505050565b6000600160008373ffffffffffffffffffffffffffffffffffffffff1673ffffffffffffffffffffffffffffffffffffffff16815260200190815260200160002060000160019054906101000a900460ff169050919050565b600033600073ffffffffffffffffffffffffffffffffffffffff168173ffffffffffffffffffffffffffffffffffffffff1614151515611a8257600080fd5b336000600b60008373ffffffffffffffffffffffffffffffffffffffff1673ffffffffffffffffffffffffffffffffffffffff16815260200190815260200160002054118015611b10575042600b60008373ffffffffffffffffffffffffffffffffffffffff1673ffffffffffffffffffffffffffffffffffffffff16815260200190815260200160002054115b1515611b1b57600080fd5b611b23612e29565b604051809103906000f080158015611b3f573d6000803e3d6000fd5b50925082600a60003373ffffffffffffffffffffffffffffffffffffffff1673ffffffffffffffffffffffffffffffffffffffff16815260200190815260200160002060006101000a81548173ffffffffffffffffffffffffffffffffffffffff021916908373ffffffffffffffffffffffffffffffffffffffff1602179055506000600b60003373ffffffffffffffffffffffffffffffffffffffff1673ffffffffffffffffffffffffffffffffffffffff168152602001908152602001600020819055508273ffffffffffffffffffffffffffffffffffffffff1663d7f31eb9600960009054906101000a900473ffffffffffffffffffffffffffffffffffffffff166000876040518463ffffffff167c0100000000000000000000000000000000000000000000000000000000028152600401808473ffffffffffffffffffffffffffffffffffffffff1673ffffffffffffffffffffffffffffffffffffffff16815260200183815260200180602001828103825283818151815260200191508051906020019080838360005b83811015611cea578082015181840152602081019050611ccf565b50505050905090810190601f168015611d175780820380516001836020036101000a031916815260200191505b50945050505050600060405180830381600087803b158015611d3857600080fd5b505af1158015611d4c573d6000803e3d6000fd5b5050505050505050565b60606003805480602002602001604051908101604052809291908181526020018280548015611dda57602002820191906000526020600020905b8160009054906101000a900473ffffffffffffffffffffffffffffffffffffffff1673ffffffffffffffffffffffffffffffffffffffff1681526020019060010190808311611d90575b5050505050905090565b60608060608060606000600260008873ffffffffffffffffffffffffffffffffffffffff1673ffffffffffffffffffffffffffffffffffffffff1681526020019081526020016000206000018054600181600116156101000203166002900480601f016020809104026020016040519081016040528092919081815260200182805460018160011615610100020316600290048015611ec45780601f10611e9957610100808354040283529160200191611ec4565b820191906000526020600020905b815481529060010190602001808311611ea757829003601f168201915b50505050509550600260008873ffffffffffffffffffffffffffffffffffffffff1673ffffffffffffffffffffffffffffffffffffffff1681526020019081526020016000206001018054600181600116156101000203166002900480601f016020809104026020016040519081016040528092919081815260200182805460018160011615610100020316600290048015611fa15780601f10611f7657610100808354040283529160200191611fa1565b820191906000526020600020905b815481529060010190602001808311611f8457829003601f168201915b50505050509450600260008873ffffffffffffffffffffffffffffffffffffffff1673ffffffffffffffffffffffffffffffffffffffff1681526020019081526020016000206002018054600181600116156101000203166002900480601f01602080910402602001604051908101604052809291908181526020018280546001816001161561010002031660029004801561207e5780601f106120535761010080835404028352916020019161207e565b820191906000526020600020905b81548152906001019060200180831161206157829003601f168201915b50505050509350600260008873ffffffffffffffffffffffffffffffffffffffff1673ffffffffffffffffffffffffffffffffffffffff1681526020019081526020016000206003018054600181600116156101000203166002900480601f01602080910402602001604051908101604052809291908181526020018280546001816001161561010002031660029004801561215b5780601f106121305761010080835404028352916020019161215b565b820191906000526020600020905b81548152906001019060200180831161213e57829003601f168201915b50505050509250600260008873ffffffffffffffffffffffffffffffffffffffff1673ffffffffffffffffffffffffffffffffffffffff1681526020019081526020016000206004018054600181600116156101000203166002900480601f0160208091040260200160405190810160405280929190818152602001828054600181600116156101000203166002900480156122385780601f1061220d57610100808354040283529160200191612238565b820191906000526020600020905b81548152906001019060200180831161221b57829003601f168201915b50505050509150600260008873ffffffffffffffffffffffffffffffffffffffff1673ffffffffffffffffffffffffffffffffffffffff16815260200190815260200160002060050160009054906101000a900460ff16905091939550919395565b6000818060048111156122a957fe5b73__Eidas_________________________________630fa78bf790916040518263ffffffff167c01000000000000000000000000000000000000000000000000000000000281526004018082600481111561230057fe5b60ff16815260200191505060206040518083038186803b15801561232357600080fd5b505af4158015612337573d6000803e3d6000fd5b505050506040513d602081101561234d57600080fd5b8101908080519060200190929190505050151561236957600080fd5b83600160008273ffffffffffffffffffffffffffffffffffffffff1673ffffffffffffffffffffffffffffffffffffffff16815260200190815260200160002060000160019054906101000a900460ff161515156123c657600080fd5b33600160008273ffffffffffffffffffffffffffffffffffffffff1673ffffffffffffffffffffffffffffffffffffffff16815260200190815260200160002060000160019054906101000a900460ff16151561242257600080fd5b600160008773ffffffffffffffffffffffffffffffffffffffff1673ffffffffffffffffffffffffffffffffffffffff1681526020019081526020016000209350848460000160006101000a81548160ff0219169083600481111561248357fe5b021790555060018460000160016101000a81548160ff021916908315150217905550505050505050565b600460009054906101000a900473ffffffffffffffffffffffffffffffffffffffff1681565b8160011515600260008373ffffffffffffffffffffffffffffffffffffffff1673ffffffffffffffffffffffffffffffffffffffff16815260200190815260200160002060050160009054906101000a900460ff16151514151561253657600080fd5b81600260008573ffffffffffffffffffffffffffffffffffffffff1673ffffffffffffffffffffffffffffffffffffffff168152602001908152602001600020600401908051906020019061258c929190612da9565b50505050565b600087600260008273ffffffffffffffffffffffffffffffffffffffff1673ffffffffffffffffffffffffffffffffffffffff16815260200190815260200160002060050160009054906101000a900460ff161515156125f157600080fd5b3360011515600260008373ffffffffffffffffffffffffffffffffffffffff1673ffffffffffffffffffffffffffffffffffffffff16815260200190815260200160002060050160009054906101000a900460ff16151514151561265457600080fd5b600260008b73ffffffffffffffffffffffffffffffffffffffff1673ffffffffffffffffffffffffffffffffffffffff168152602001908152602001600020925060038a90806001815401808255809150509060018203906000526020600020016000909192909190916101000a81548173ffffffffffffffffffffffffffffffffffffffff021916908373ffffffffffffffffffffffffffffffffffffffff1602179055505088600260008c73ffffffffffffffffffffffffffffffffffffffff1673ffffffffffffffffffffffffffffffffffffffff1681526020019081526020016000206000019080519060200190612751929190612da9565b5087600260008c73ffffffffffffffffffffffffffffffffffffffff1673ffffffffffffffffffffffffffffffffffffffff16815260200190815260200160002060010190805190602001906127a8929190612da9565b5086600260008c73ffffffffffffffffffffffffffffffffffffffff1673ffffffffffffffffffffffffffffffffffffffff16815260200190815260200160002060020190805190602001906127ff929190612da9565b5085600260008c73ffffffffffffffffffffffffffffffffffffffff1673ffffffffffffffffffffffffffffffffffffffff1681526020019081526020016000206003019080519060200190612856929190612da9565b5084600260008c73ffffffffffffffffffffffffffffffffffffffff1673ffffffffffffffffffffffffffffffffffffffff16815260200190815260200160002060040190805190602001906128ad929190612da9565b5083600260008c73ffffffffffffffffffffffffffffffffffffffff1673ffffffffffffffffffffffffffffffffffffffff16815260200190815260200160002060050160006101000a81548160ff02191690831515021790555050505050505050505050565b33600160008273ffffffffffffffffffffffffffffffffffffffff1673ffffffffffffffffffffffffffffffffffffffff16815260200190815260200160002060000160019054906101000a900460ff16151561297057600080fd5b600a60008473ffffffffffffffffffffffffffffffffffffffff1673ffffffffffffffffffffffffffffffffffffffff16815260200190815260200160002060009054906101000a900473ffffffffffffffffffffffffffffffffffffffff16600a60008473ffffffffffffffffffffffffffffffffffffffff1673ffffffffffffffffffffffffffffffffffffffff16815260200190815260200160002060006101000a81548173ffffffffffffffffffffffffffffffffffffffff021916908373ffffffffffffffffffffffffffffffffffffffff1602179055506000600a60008573ffffffffffffffffffffffffffffffffffffffff1673ffffffffffffffffffffffffffffffffffffffff16815260200190815260200160002060006101000a81548173ffffffffffffffffffffffffffffffffffffffff021916908373ffffffffffffffffffffffffffffffffffffffff1602179055503373ffffffffffffffffffffffffffffffffffffffff168373ffffffffffffffffffffffffffffffffffffffff167ff5cf2e915faa705d003410f0f65cd59606d22f8e7fb7361a015d6a00b7723d9984604051808273ffffffffffffffffffffffffffffffffffffffff1673ffffffffffffffffffffffffffffffffffffffff16815260200191505060405180910390a3505050565b600081600160008273ffffffffffffffffffffffffffffffffffffffff1673ffffffffffffffffffffffffffffffffffffffff16815260200190815260200160002060000160019054906101000a900460ff161515612bc057600080fd5b600160008473ffffffffffffffffffffffffffffffffffffffff1673ffffffffffffffffffffffffffffffffffffffff168152602001908152602001600020915060008260000160006101000a81548160ff02191690836004811115612c2257fe5b021790555060008260000160016101000a81548160ff021916908315150217905550505050565b60008060008373ffffffffffffffffffffffffffffffffffffffff1673ffffffffffffffffffffffffffffffffffffffff16815260200190815260200160002060009054906101000a900460ff169050919050565b600760009054906101000a900473ffffffffffffffffffffffffffffffffffffffff1681565b8160011515600260008373ffffffffffffffffffffffffffffffffffffffff1673ffffffffffffffffffffffffffffffffffffffff16815260200190815260200160002060050160009054906101000a900460ff161515141515612d2757600080fd5b81600260008573ffffffffffffffffffffffffffffffffffffffff1673ffffffffffffffffffffffffffffffffffffffff1681526020019081526020016000206000019080519060200190612d7d929190612da9565b50505050565b600960009054906101000a900473ffffffffffffffffffffffffffffffffffffffff1681565b828054600181600116156101000203166002900490600052602060002090601f016020900481019282601f10612dea57805160ff1916838001178555612e18565b82800160010185558215612e18579182015b82811115612e17578251825591602001919060010190612dfc565b5b509050612e259190612e39565b5090565b60405161052f80612e5f83390190565b612e5b91905b80821115612e57576000816000905550600101612e3f565b5090565b905600608060405234801561001057600080fd5b50336000806101000a81548173ffffffffffffffffffffffffffffffffffffffff021916908373ffffffffffffffffffffffffffffffffffffffff16021790555033600160006101000a81548173ffffffffffffffffffffffffffffffffffffffff021916908373ffffffffffffffffffffffffffffffffffffffff16021790555061048e806100a16000396000f300608060405260043610610062576000357c0100000000000000000000000000000000000000000000000000000000900463ffffffff1680631a695230146100675780632f54bf6e146100aa5780638da5cb5b14610105578063d7f31eb91461015c575b600080fd5b34801561007357600080fd5b506100a8600480360381019080803573ffffffffffffffffffffffffffffffffffffffff1690602001909291905050506101ef565b005b3480156100b657600080fd5b506100eb600480360381019080803573ffffffffffffffffffffffffffffffffffffffff16906020019092919050505061027c565b604051808215151515815260200191505060405180910390f35b34801561011157600080fd5b5061011a6102d5565b604051808273ffffffffffffffffffffffffffffffffffffffff1673ffffffffffffffffffffffffffffffffffffffff16815260200191505060405180910390f35b34801561016857600080fd5b506101ed600480360381019080803573ffffffffffffffffffffffffffffffffffffffff16906020019092919080359060200190929190803590602001908201803590602001908080601f01602080910402602001604051908101604052809392919081815260200183838082843782019150505050505091929192905050506102fb565b005b6101f83361027c565b151561020357600080fd5b3073ffffffffffffffffffffffffffffffffffffffff168173ffffffffffffffffffffffffffffffffffffffff1614151561027957806000806101000a81548173ffffffffffffffffffffffffffffffffffffffff021916908373ffffffffffffffffffffffffffffffffffffffff1602179055505b50565b60008060009054906101000a900473ffffffffffffffffffffffffffffffffffffffff1673ffffffffffffffffffffffffffffffffffffffff168273ffffffffffffffffffffffffffffffffffffffff16149050919050565b600160009054906101000a900473ffffffffffffffffffffffffffffffffffffffff1681565b6103043361027c565b151561030f57600080fd5b8273ffffffffffffffffffffffffffffffffffffffff16828260405180828051906020019080838360005b8381101561035557808201518184015260208101905061033a565b50505050905090810190601f1680156103825780820380516001836020036101000a031916815260200191505b5091505060006040518083038185875af19250505015156103a257600080fd5b8273ffffffffffffffffffffffffffffffffffffffff167fc1de93dfa06362c6a616cde73ec17d116c0d588dd1df70f27f91b500de207c4183836040518083815260200180602001828103825283818151815260200191508051906020019080838360005b83811015610422578082015181840152602081019050610407565b50505050905090810190601f16801561044f5780820380516001836020036101000a031916815260200191505b50935050505060405180910390a25050505600a165627a7a723058208b0704c12aa8c971d1fe3d1c809c2bef45b0e7e445e0a4c3c4702704b40eb6750029a165627a7a72305820760d33a01c962c8d6e2dfd4a277969b54e3356798adff9685e65480fd78da2df0029608060405234801561001057600080fd5b5060405160208061127783398101806040528101908080519060200190929190505050600360008190555080600160006101000a81548173ffffffffffffffffffffffffffffffffffffffff021916908373ffffffffffffffffffffffffffffffffffffffff160217905550506111eb8061008c6000396000f3006080604052600436106100c5576000357c0100000000000000000000000000000000000000000000000000000000900463ffffffff16806341e61ff8146100ca5780634510b1cb1461013357806354fd4d50146101d257806355d64732146101fd5780635faf7d941461027b5780636104464f146102da5780636792223d14610331578063aeda232a1461041b578063c43f6b3614610499578063dc11e39b14610502578063dd517e1014610533578063dff9a1a914610571578063e04ce02c146105a2575b600080fd5b3480156100d657600080fd5b50610115600480360381019080803573ffffffffffffffffffffffffffffffffffffffff16906020019092919080359060200190929190505050610619565b60405180826000191660001916815260200191505060405180910390f35b34801561013f57600080fd5b50610174600480360381019080803573ffffffffffffffffffffffffffffffffffffffff169060200190929190505050610649565b6040518083815260200180602001828103825283818151815260200191508051906020019060200280838360005b838110156101bd5780820151818401526020810190506101a2565b50505050905001935050505060405180910390f35b3480156101de57600080fd5b506101e761072e565b6040518082815260200191505060405180910390f35b34801561020957600080fd5b5061024c600480360381019080803573ffffffffffffffffffffffffffffffffffffffff1690602001909291908035600019169060200190929190505050610734565b604051808315151515815260200182600381111561026657fe5b60ff1681526020019250505060405180910390f35b34801561028757600080fd5b506102b6600480360381019080803560ff169060200190929190803560ff169060200190929190505050610801565b604051808260038111156102c657fe5b60ff16815260200191505060405180910390f35b3480156102e657600080fd5b506102ef6108c8565b604051808273ffffffffffffffffffffffffffffffffffffffff1673ffffffffffffffffffffffffffffffffffffffff16815260200191505060405180910390f35b34801561033d57600080fd5b50610380600480360381019080803573ffffffffffffffffffffffffffffffffffffffff16906020019092919080356000191690602001909291905050506108ee565b604051808415151515815260200183600381111561039a57fe5b60ff16815260200180602001828103825283818151815260200191508051906020019080838360005b838110156103de5780820151818401526020810190506103c3565b50505050905090810190601f16801561040b5780820380516001836020036101000a031916815260200191505b5094505050505060405180910390f35b34801561042757600080fd5b5061046a600480360381019080803573ffffffffffffffffffffffffffffffffffffffff16906020019092919080356000191690602001909291905050506109d7565b604051808315151515815260200182600381111561048457fe5b60ff1681526020019250505060405180910390f35b3480156104a557600080fd5b506104e4600480360381019080803573ffffffffffffffffffffffffffffffffffffffff16906020019092919080359060200190929190505050610aa4565b60405180826000191660001916815260200191505060405180910390f35b34801561050e57600080fd5b506105316004803603810190808035600019169060200190929190505050610ad4565b005b34801561053f57600080fd5b5061056f6004803603810190808035600019169060200190929190803560ff169060200190929190505050610c83565b005b34801561057d57600080fd5b506105a06004803603810190808035600019169060200190929190505050610e36565b005b3480156105ae57600080fd5b506106176004803603810190808035600019169060200190929190803590602001908201803590602001908080601f0160208091040260200160405190810160405280939291908181526020018383808284378201915050505050509192919290505050610f46565b005b60056020528160005260406000208181548110151561063457fe5b90600052602060002001600091509150505481565b60006060600360008473ffffffffffffffffffffffffffffffffffffffff1673ffffffffffffffffffffffffffffffffffffffff16815260200190815260200160002080549050600360008573ffffffffffffffffffffffffffffffffffffffff1673ffffffffffffffffffffffffffffffffffffffff1681526020019081526020016000208080548060200260200160405190810160405280929190818152602001828054801561071e57602002820191906000526020600020905b81546000191681526020019060010190808311610706575b5050505050905091509150915091565b60005481565b600080600084600073ffffffffffffffffffffffffffffffffffffffff168173ffffffffffffffffffffffffffffffffffffffff161415151561077657600080fd5b600260008773ffffffffffffffffffffffffffffffffffffffff1673ffffffffffffffffffffffffffffffffffffffff1681526020019081526020016000206000866000191660001916815260200190815260200160002091508160000160009054906101000a900460ff168260000160019054906101000a900460ff169350935050509250929050565b6000826000600381111561081157fe5b81600381111561081d57fe5b10158015610841575060038081111561083257fe5b81600381111561083e57fe5b11155b151561084c57600080fd5b826000600381111561085a57fe5b81600381111561086657fe5b1015801561088a575060038081111561087b57fe5b81600381111561088757fe5b11155b151561089557600080fd5b8360038111156108a157fe5b8560038111156108ad57fe5b1015156108bc578492506108c0565b8392505b505092915050565b600160009054906101000a900473ffffffffffffffffffffffffffffffffffffffff1681565b6002602052816000526040600020602052806000526040600020600091509150508060000160009054906101000a900460ff16908060000160019054906101000a900460ff1690806001018054600181600116156101000203166002900480601f0160208091040260200160405190810160405280929190818152602001828054600181600116156101000203166002900480156109cd5780601f106109a2576101008083540402835291602001916109cd565b820191906000526020600020905b8154815290600101906020018083116109b057829003601f168201915b5050505050905083565b600080600084600073ffffffffffffffffffffffffffffffffffffffff168173ffffffffffffffffffffffffffffffffffffffff1614151515610a1957600080fd5b600460008773ffffffffffffffffffffffffffffffffffffffff1673ffffffffffffffffffffffffffffffffffffffff1681526020019081526020016000206000866000191660001916815260200190815260200160002091508160000160009054906101000a900460ff168260000160019054906101000a900460ff169350935050509250929050565b600360205281600052604060002081815481101515610abf57fe5b90600052602060002001600091509150505481565b600460003373ffffffffffffffffffffffffffffffffffffffff1673ffffffffffffffffffffffffffffffffffffffff1681526020019081526020016000206000826000191660001916815260200190815260200160002060000160009054906101000a900460ff16151515610b4957600080fd5b604080519081016040528060011515815260200160006003811115610b6a57fe5b815250600460003373ffffffffffffffffffffffffffffffffffffffff1673ffffffffffffffffffffffffffffffffffffffff1681526020019081526020016000206000836000191660001916815260200190815260200160002060008201518160000160006101000a81548160ff02191690831515021790555060208201518160000160016101000a81548160ff02191690836003811115610c0957fe5b0217905550905050600560003373ffffffffffffffffffffffffffffffffffffffff1673ffffffffffffffffffffffffffffffffffffffff16815260200190815260200160002081908060018154018082558091505090600182039060005260206000200160009091929091909150906000191690555050565b60008160006003811115610c9357fe5b816003811115610c9f57fe5b10158015610cc35750600380811115610cb457fe5b816003811115610cc057fe5b11155b1515610cce57600080fd5b600460003373ffffffffffffffffffffffffffffffffffffffff1673ffffffffffffffffffffffffffffffffffffffff1681526020019081526020016000206000856000191660001916815260200190815260200160002091508160000160019054906101000a900460ff166003811115610d4557fe5b836003811115610d5157fe5b1115610e305760016003811115610d6457fe5b836003811115610d7057fe5b1480610d92575060026003811115610d8457fe5b836003811115610d9057fe5b145b15610e2f5760018260000160006101000a81548160ff021916908315150217905550828260000160016101000a81548160ff02191690836003811115610dd457fe5b02179055507f0bc6eed115cb12ced57d22ce88a4be72a3b052cf01e5a1947a1f901f8ff26b1a8484604051808360001916600019168152602001826003811115610e1a57fe5b60ff1681526020019250505060405180910390a15b5b50505050565b6000600260003373ffffffffffffffffffffffffffffffffffffffff1673ffffffffffffffffffffffffffffffffffffffff1681526020019081526020016000206000836000191660001916815260200190815260200160002090508060000160009054906101000a900460ff168015610ed75750600380811115610eb757fe5b8160000160019054906101000a900460ff166003811115610ed457fe5b14155b15610f425760038160000160016101000a81548160ff02191690836003811115610efd57fe5b02179055507fc83f14fb22d6787113e4b492b1b27daac6284e516a3c61d454359fd426d04c298260405180826000191660001916815260200191505060405180910390a15b5050565b600260003373ffffffffffffffffffffffffffffffffffffffff1673ffffffffffffffffffffffffffffffffffffffff1681526020019081526020016000206000836000191660001916815260200190815260200160002060000160009054906101000a900460ff16151515610fbb57600080fd5b60606040519081016040528060011515815260200160006003811115610fdd57fe5b815260200182815250600260003373ffffffffffffffffffffffffffffffffffffffff1673ffffffffffffffffffffffffffffffffffffffff1681526020019081526020016000206000846000191660001916815260200190815260200160002060008201518160000160006101000a81548160ff02191690831515021790555060208201518160000160016101000a81548160ff0219169083600381111561108257fe5b021790555060408201518160010190805190602001906110a392919061111a565b50905050600360003373ffffffffffffffffffffffffffffffffffffffff1673ffffffffffffffffffffffffffffffffffffffff1681526020019081526020016000208290806001815401808255809150509060018203906000526020600020016000909192909190915090600019169055505050565b828054600181600116156101000203166002900490600052602060002090601f016020900481019282601f1061115b57805160ff1916838001178555611189565b82800160010185558215611189579182015b8281111561118857825182559160200191906001019061116d565b5b509050611196919061119a565b5090565b6111bc91905b808211156111b85760008160009055506001016111a0565b5090565b905600a165627a7a72305820daace1968374e63cf4307643d426727259e433c32c64bd47c38b580d0e9284f50029608060405260806040519081016040528060011515151581526020016000151515158152602001600115151515815260200160001515151581525060029060046200004c92919062000132565b5060806040519081016040528060001515151581526020016001151515158152602001600015151515815260200160011515151581525060039060046200009592919062000132565b506000600460006101000a81548160ff021916908315150217905550348015620000be57600080fd5b506040516020806200124983398101806040528101908080519060200190929190505050600360008190555080600160006101000a81548173ffffffffffffffffffffffffffffffffffffffff021916908373ffffffffffffffffffffffffffffffffffffffff1602179055505062000205565b826004601f01602090048101928215620001bf5791602002820160005b838211156200018e57835183826101000a81548160ff02191690831515021790555092602001926001016020816000010492830192600103026200014f565b8015620001bd5782816101000a81549060ff02191690556001016020816000010492830192600103026200018e565b505b509050620001ce9190620001d2565b5090565b6200020291905b80821115620001fe57600081816101000a81549060ff021916905550600101620001d9565b5090565b90565b61103480620002156000396000f3006080604052600436106100af576000357c0100000000000000000000000000000000000000000000000000000000900463ffffffff168063034f8408146100b45780631e54e325146101135780633000dc39146101fd5780634e3a5de51461023b5780635205080f146102b257806354fd4d50146103305780636104464f1461035b5780639373014a146103b2578063c00dcd0e14610430578063e4734593146104cf578063e64af93814610538575b600080fd5b3480156100c057600080fd5b506100ef600480360381019080803560ff169060200190929190803560ff169060200190929190505050610576565b604051808260038111156100ff57fe5b60ff16815260200191505060405180910390f35b34801561011f57600080fd5b50610162600480360381019080803573ffffffffffffffffffffffffffffffffffffffff169060200190929190803560001916906020019092919050505061063d565b604051808415151515815260200183600381111561017c57fe5b60ff16815260200180602001828103825283818151815260200191508051906020019080838360005b838110156101c05780820151818401526020810190506101a5565b50505050905090810190601f1680156101ed5780820380516001836020036101000a031916815260200191505b5094505050505060405180910390f35b34801561020957600080fd5b506102396004803603810190808035600019169060200190929190803560ff169060200190929190505050610726565b005b34801561024757600080fd5b506102b06004803603810190808035600019169060200190929190803590602001908201803590602001908080601f01602080910402602001604051908101604052809392919081815260200183838082843782019150505050505091929192905050506108ed565b005b3480156102be57600080fd5b50610301600480360381019080803573ffffffffffffffffffffffffffffffffffffffff1690602001909291908035600019169060200190929190505050610ac1565b604051808315151515815260200182600381111561031b57fe5b60ff1681526020019250505060405180910390f35b34801561033c57600080fd5b50610345610b8e565b6040518082815260200191505060405180910390f35b34801561036757600080fd5b50610370610b94565b604051808273ffffffffffffffffffffffffffffffffffffffff1673ffffffffffffffffffffffffffffffffffffffff16815260200191505060405180910390f35b3480156103be57600080fd5b50610401600480360381019080803573ffffffffffffffffffffffffffffffffffffffff1690602001909291908035600019169060200190929190505050610bba565b604051808315151515815260200182600381111561041b57fe5b60ff1681526020019250505060405180910390f35b34801561043c57600080fd5b50610471600480360381019080803573ffffffffffffffffffffffffffffffffffffffff169060200190929190505050610c87565b6040518083815260200180602001828103825283818151815260200191508051906020019060200280838360005b838110156104ba57808201518184015260208101905061049f565b50505050905001935050505060405180910390f35b3480156104db57600080fd5b5061051a600480360381019080803573ffffffffffffffffffffffffffffffffffffffff16906020019092919080359060200190929190505050610d6c565b60405180826000191660001916815260200191505060405180910390f35b34801561054457600080fd5b506105746004803603810190808035600019169060200190929190803560ff169060200190929190505050610d9c565b005b6000826000600381111561058657fe5b81600381111561059257fe5b101580156105b657506003808111156105a757fe5b8160038111156105b357fe5b11155b15156105c157600080fd5b82600060038111156105cf57fe5b8160038111156105db57fe5b101580156105ff57506003808111156105f057fe5b8160038111156105fc57fe5b11155b151561060a57600080fd5b83600381111561061657fe5b85600381111561062257fe5b10151561063157849250610635565b8392505b505092915050565b6005602052816000526040600020602052806000526040600020600091509150508060000160009054906101000a900460ff16908060000160019054906101000a900460ff1690806001018054600181600116156101000203166002900480601f01602080910402602001604051908101604052809291908181526020018280546001816001161561010002031660029004801561071c5780601f106106f15761010080835404028352916020019161071c565b820191906000526020600020905b8154815290600101906020018083116106ff57829003601f168201915b5050505050905083565b6000816000600381111561073657fe5b81600381111561074257fe5b10158015610766575060038081111561075757fe5b81600381111561076357fe5b11155b151561077157600080fd5b600760003373ffffffffffffffffffffffffffffffffffffffff1673ffffffffffffffffffffffffffffffffffffffff168152602001908152602001600020600085600019166000191681526020019081526020016000209150600460009054906101000a900460ff1615801561080f57508160000160019054906101000a900460ff16600381111561080057fe5b83600381111561080c57fe5b11155b15610819576108e7565b600383600381111561082757fe5b60048110151561083357fe5b602091828204019190069054906101000a900460ff16156108e65760018260000160006101000a81548160ff021916908315150217905550828260000160016101000a81548160ff0219169083600381111561088b57fe5b02179055507f52035ff46a15e119b23cfbf756f83f68ee8740523a40b78f621fdd44f091fb3884846040518083600019166000191681526020018260038111156108d157fe5b60ff1681526020019250505060405180910390a15b5b50505050565b600560003373ffffffffffffffffffffffffffffffffffffffff1673ffffffffffffffffffffffffffffffffffffffff1681526020019081526020016000206000836000191660001916815260200190815260200160002060000160009054906101000a900460ff1615151561096257600080fd5b6060604051908101604052806001151581526020016000600381111561098457fe5b815260200182815250600560003373ffffffffffffffffffffffffffffffffffffffff1673ffffffffffffffffffffffffffffffffffffffff1681526020019081526020016000206000846000191660001916815260200190815260200160002060008201518160000160006101000a81548160ff02191690831515021790555060208201518160000160016101000a81548160ff02191690836003811115610a2957fe5b02179055506040820151816001019080519060200190610a4a929190610f63565b50905050600660003373ffffffffffffffffffffffffffffffffffffffff1673ffffffffffffffffffffffffffffffffffffffff1681526020019081526020016000208290806001815401808255809150509060018203906000526020600020016000909192909190915090600019169055505050565b600080600084600073ffffffffffffffffffffffffffffffffffffffff168173ffffffffffffffffffffffffffffffffffffffff1614151515610b0357600080fd5b600560008773ffffffffffffffffffffffffffffffffffffffff1673ffffffffffffffffffffffffffffffffffffffff1681526020019081526020016000206000866000191660001916815260200190815260200160002091508160000160009054906101000a900460ff168260000160019054906101000a900460ff169350935050509250929050565b60005481565b600160009054906101000a900473ffffffffffffffffffffffffffffffffffffffff1681565b600080600084600073ffffffffffffffffffffffffffffffffffffffff168173ffffffffffffffffffffffffffffffffffffffff1614151515610bfc57600080fd5b600760008773ffffffffffffffffffffffffffffffffffffffff1673ffffffffffffffffffffffffffffffffffffffff1681526020019081526020016000206000866000191660001916815260200190815260200160002091508160000160009054906101000a900460ff168260000160019054906101000a900460ff169350935050509250929050565b60006060600660008473ffffffffffffffffffffffffffffffffffffffff1673ffffffffffffffffffffffffffffffffffffffff16815260200190815260200160002080549050600660008573ffffffffffffffffffffffffffffffffffffffff1673ffffffffffffffffffffffffffffffffffffffff16815260200190815260200160002080805480602002602001604051908101604052809291908181526020018280548015610d5c57602002820191906000526020600020905b81546000191681526020019060010190808311610d44575b5050505050905091509150915091565b600660205281600052604060002081815481101515610d8757fe5b90600052602060002001600091509150505481565b60008160006003811115610dac57fe5b816003811115610db857fe5b10158015610ddc5750600380811115610dcd57fe5b816003811115610dd957fe5b11155b1515610de757600080fd5b600560003373ffffffffffffffffffffffffffffffffffffffff1673ffffffffffffffffffffffffffffffffffffffff1681526020019081526020016000206000856000191660001916815260200190815260200160002091508160000160009054906101000a900460ff161515610e5e57610f5d565b600460009054906101000a900460ff16158015610ea257508160000160019054906101000a900460ff166003811115610e9357fe5b836003811115610e9f57fe5b11155b15610eac57610f5d565b6002836003811115610eba57fe5b600481101515610ec657fe5b602091828204019190069054906101000a900460ff1615610f5c57828260000160016101000a81548160ff02191690836003811115610f0157fe5b02179055507f52035ff46a15e119b23cfbf756f83f68ee8740523a40b78f621fdd44f091fb388484604051808360001916600019168152602001826003811115610f4757fe5b60ff1681526020019250505060405180910390a15b5b50505050565b828054600181600116156101000203166002900490600052602060002090601f016020900481019282601f10610fa457805160ff1916838001178555610fd2565b82800160010185558215610fd2579182015b82811115610fd1578251825591602001919060010190610fb6565b5b509050610fdf9190610fe3565b5090565b61100591905b80821115611001576000816000905550600101610fe9565b5090565b905600a165627a7a7230582058eceaa40912b66a2aa5c472a995e5e8e97580dbbee80ff0718a9769fd16b6160029608060405234801561001057600080fd5b50604051602080610e8283398101806040528101908080519060200190929190505050600360008190555080600160006101000a81548173ffffffffffffffffffffffffffffffffffffffff021916908373ffffffffffffffffffffffffffffffffffffffff16021790555050610df68061008c6000396000f30060806040526004361061008e576000357c0100000000000000000000000000000000000000000000000000000000900463ffffffff1680631226f6a51461009357806331f7f2591461011f57806336241962146101db57806350382c1a1461024457806354fd4d50146102ad5780636104464f146102d8578063c000ceee1461032f578063d16df8ec146103f5575b600080fd5b34801561009f57600080fd5b506100e2600480360381019080803573ffffffffffffffffffffffffffffffffffffffff169060200190929190803560001916906020019092919050505061045e565b60405180851515151581526020018460018111156100fc57fe5b60ff16815260200183815260200182815260200194505050505060405180910390f35b34801561012b57600080fd5b50610160600480360381019080803573ffffffffffffffffffffffffffffffffffffffff16906020019092919050505061053e565b6040518080602001828103825283818151815260200191508051906020019080838360005b838110156101a0578082015181840152602081019050610185565b50505050905090810190601f1680156101cd5780820380516001836020036101000a031916815260200191505b509250505060405180910390f35b3480156101e757600080fd5b50610242600480360381019080803590602001908201803590602001908080601f016020809104026020016040519081016040528093929190818152602001838380828437820191505050505050919291929050505061071d565b005b34801561025057600080fd5b506102ab600480360381019080803590602001908201803590602001908080601f0160208091040260200160405190810160405280939291908181526020018383808284378201915050505050509192919290505050610868565b005b3480156102b957600080fd5b506102c2610a6d565b6040518082815260200191505060405180910390f35b3480156102e457600080fd5b506102ed610a73565b604051808273ffffffffffffffffffffffffffffffffffffffff1673ffffffffffffffffffffffffffffffffffffffff16815260200191505060405180910390f35b34801561033b57600080fd5b5061037a600480360381019080803573ffffffffffffffffffffffffffffffffffffffff16906020019092919080359060200190929190505050610a99565b6040518080602001828103825283818151815260200191508051906020019080838360005b838110156103ba57808201518184015260208101905061039f565b50505050905090810190601f1680156103e75780820380516001836020036101000a031916815260200191505b509250505060405180910390f35b34801561040157600080fd5b5061045c600480360381019080803590602001908201803590602001908080601f0160208091040260200160405190810160405280939291908181526020018383808284378201915050505050509192919290505050610b61565b005b600080600080600086600073ffffffffffffffffffffffffffffffffffffffff168173ffffffffffffffffffffffffffffffffffffffff16141515156104a357600080fd5b600260008973ffffffffffffffffffffffffffffffffffffffff1673ffffffffffffffffffffffffffffffffffffffff1681526020019081526020016000206000886000191660001916815260200190815260200160002091508160000160009054906101000a900460ff168260000160019054906101000a900460ff16836001015484600201549550955095509550505092959194509250565b606081600073ffffffffffffffffffffffffffffffffffffffff168173ffffffffffffffffffffffffffffffffffffffff161415151561057d57600080fd5b6000600360008573ffffffffffffffffffffffffffffffffffffffff1673ffffffffffffffffffffffffffffffffffffffff16815260200190815260200160002080549050111561070357600360008473ffffffffffffffffffffffffffffffffffffffff1673ffffffffffffffffffffffffffffffffffffffff1681526020019081526020016000206001600360008673ffffffffffffffffffffffffffffffffffffffff1673ffffffffffffffffffffffffffffffffffffffff168152602001908152602001600020805490500381548110151561065957fe5b906000526020600020018054600181600116156101000203166002900480601f0160208091040260200160405190810160405280929190818152602001828054600181600116156101000203166002900480156106f75780601f106106cc576101008083540402835291602001916106f7565b820191906000526020600020905b8154815290600101906020018083116106da57829003601f168201915b50505050509150610717565b602060405190810160405280600081525091505b50919050565b6000600260003373ffffffffffffffffffffffffffffffffffffffff1673ffffffffffffffffffffffffffffffffffffffff168152602001908152602001600020600061076984610cb9565b6000191660001916815260200190815260200160002090508060000160009054906101000a900460ff16156108645760018160000160016101000a81548160ff021916908360018111156107b957fe5b02179055504281600201819055507f590ada3b231515dd26dca05728f31024554fc0eca9ef33aa1d623bc4d7d5fd50826040518080602001828103825283818151815260200191508051906020019080838360005b8381101561082957808201518184015260208101905061080e565b50505050905090810190601f1680156108565780820380516001836020036101000a031916815260200191505b509250505060405180910390a15b5050565b6000600260003373ffffffffffffffffffffffffffffffffffffffff1673ffffffffffffffffffffffffffffffffffffffff16815260200190815260200160002060006108b484610cb9565b6000191660001916815260200190815260200160002060000160009054906101000a900460ff161515156108e757600080fd5b4290506108fb6108f63361053e565b610b61565b6080604051908101604052806001151581526020016000600181111561091d57fe5b81526020018281526020016000815250600260003373ffffffffffffffffffffffffffffffffffffffff1673ffffffffffffffffffffffffffffffffffffffff168152602001908152602001600020600061097785610cb9565b6000191660001916815260200190815260200160002060008201518160000160006101000a81548160ff02191690831515021790555060208201518160000160016101000a81548160ff021916908360018111156109d157fe5b02179055506040820151816001015560608201518160020155905050600360003373ffffffffffffffffffffffffffffffffffffffff1673ffffffffffffffffffffffffffffffffffffffff168152602001908152602001600020829080600181540180825580915050906001820390600052602060002001600090919290919091509080519060200190610a67929190610d25565b50505050565b60005481565b600160009054906101000a900473ffffffffffffffffffffffffffffffffffffffff1681565b600360205281600052604060002081815481101515610ab457fe5b90600052602060002001600091509150508054600181600116156101000203166002900480601f016020809104026020016040519081016040528092919081815260200182805460018160011615610100020316600290048015610b595780601f10610b2e57610100808354040283529160200191610b59565b820191906000526020600020905b815481529060010190602001808311610b3c57829003601f168201915b505050505081565b6000600260003373ffffffffffffffffffffffffffffffffffffffff1673ffffffffffffffffffffffffffffffffffffffff1681526020019081526020016000206000610bad84610cb9565b6000191660001916815260200190815260200160002090508060000160009054906101000a900460ff168015610c0a5750600180811115610bea57fe5b8160000160019054906101000a900460ff166001811115610c0757fe5b14155b15610cb5574281600201819055507f41d9cf228775966745bd16590f046aff534ab47ea15fc80127ddae02abc8bf34826040518080602001828103825283818151815260200191508051906020019080838360005b83811015610c7a578082015181840152602081019050610c5f565b50505050905090810190601f168015610ca75780820380516001836020036101000a031916815260200191505b509250505060405180910390a15b5050565b6000816040518082805190602001908083835b602083101515610cf15780518252602082019150602081019050602083039250610ccc565b6001836020036101000a03801982511681845116808217855250505050505090500191505060405180910390209050919050565b828054600181600116156101000203166002900490600052602060002090601f016020900481019282601f10610d6657805160ff1916838001178555610d94565b82800160010185558215610d94579182015b82811115610d93578251825591602001919060010190610d78565b5b509050610da19190610da5565b5090565b610dc791905b80821115610dc3576000816000905550600101610dab565b5090565b905600a165627a7a72305820e366c3dac033d86bf739e8146c0390ff95b7d6b30ec8273767bf94e70c2ea16f0029",
  "source": "pragma solidity 0.4.23;\n\nimport \"./AlastriaIdentityServiceProvider.sol\";\nimport \"./AlastriaIdentityIssuer.sol\";\nimport \"./AlastriaProxy.sol\";\nimport \"./AlastriaIdentityEntity.sol\";\nimport \"../registry/AlastriaCredentialRegistry.sol\";\nimport \"../registry/AlastriaPresentationRegistry.sol\";\nimport \"../registry/AlastriaPublicKeyRegistry.sol\";\nimport \"../libs/Owned.sol\";\n\ncontract AlastriaIdentityManager is AlastriaIdentityServiceProvider, AlastriaIdentityIssuer, AlastriaIdentityEntity, Owned {\n    //Variables\n    uint256 public version;\n    uint internal timeToLive = 10000;\n    AlastriaCredentialRegistry public alastriaCredentialRegistry;\n    AlastriaPresentationRegistry public alastriaPresentationRegistry;\n    AlastriaPublicKeyRegistry public alastriaPublicKeyRegistry;\n    mapping(address => address) public identityKeys; //change to alastriaID created check bool\n    mapping(address => uint) public pendingIDs;\n\n    //Events\n    event PreparedAlastriaID(address indexed signAddress);\n\n    event OperationWasNotSupported(string indexed method);\n\n    event IdentityCreated(address indexed identity, address indexed creator, address owner);\n\n    event IdentityRecovered(address indexed oldAccount, address newAccount, address indexed serviceProvider);\n\n    //Modifiers\n    modifier isPendingAndOnTime(address _signAddress) {\n        require(pendingIDs[_signAddress] > 0 && pendingIDs[_signAddress] > now);\n        _;\n    }\n\n    modifier validAddress(address addr) { //protects against some weird attacks\n        require(addr != address(0));\n        _;\n    }\n\n    //Constructor\n    constructor (uint256 _version) public{\n        //TODO require(_version > getPreviousVersion(_previousVersion));\n        version = _version;\n        alastriaCredentialRegistry = new AlastriaCredentialRegistry(address(0));\n        alastriaPresentationRegistry = new AlastriaPresentationRegistry(address(0));\n        alastriaPublicKeyRegistry = new AlastriaPublicKeyRegistry(address(0));\n    }\n\n    //Methods\n    function prepareAlastriaID(address _signAddress) public onlyIdentityIssuer(msg.sender) {\n        pendingIDs[_signAddress] = now + timeToLive;\n        emit PreparedAlastriaID(_signAddress);\n    }\n\n    /// @dev Creates a new AlastriaProxy contract for an owner and recovery and allows an initial forward call which would be to set the registry in our case\n    /// @param addPublicKeyCallData of the call to addKey function in AlastriaPublicKeyRegistry from the new deployed AlastriaProxy contract\n    function createAlastriaIdentity(bytes addPublicKeyCallData) public validAddress(msg.sender) isPendingAndOnTime(msg.sender) {\n        AlastriaProxy identity = new AlastriaProxy();\n        identityKeys[msg.sender] = identity;\n        pendingIDs[msg.sender] = 0;\n        identity.forward(address(alastriaPublicKeyRegistry), 0, addPublicKeyCallData);//must be alastria registry call\n    }\n\n    /// @dev This method send a transaction trough the proxy of the sender\n    function delegateCall(address _destination, uint256 _value, bytes _data) public {\n        require(identityKeys[msg.sender]!=address(0));\n        AlastriaProxy identity = AlastriaProxy(address(identityKeys[msg.sender]));\n        identity.forward(_destination,_value,_data);\n    }\n\n    function recoverAccount(address accountLost, address newAccount) public onlyIdentityIssuer(msg.sender) {\n        identityKeys[newAccount] = identityKeys[accountLost];\n        identityKeys[accountLost] = address(0);\n        IdentityRecovered(accountLost,newAccount,msg.sender);\n    }\n\n    //Internals TODO: warning recommending change visibility to pure\n    //Checks that address a is the first input in msg.data.\n    //Has very minimal gas overhead.\n    function checkMessageData(address a) internal pure returns (bool t) {\n        if (msg.data.length < 36) return false;\n        assembly {\n            let mask := 0xFFFFFFFFFFFFFFFFFFFFFFFFFFFFFFFFFFFFFFFF\n            t := eq(a, and(mask, calldataload(4)))\n        }\n    }\n}\n",
  "sourcePath": "/Users/santiago/Documents/Teleco/Blockchain/Proyectos/5 - AlastriaIdentity/Pruebas_Quorum/Trabajo/monitor/AlaIdMonitor/contracts/identityManager/AlastriaIdentityManager.sol",
  "compiler": {
    "name": "solc",
    "version": "0.4.23+commit.124ca40d.Emscripten.clang"
  },
  "schemaVersion": "3.4.1",
  "updatedAt": "2021-05-26T14:23:06.067Z",
  "devdoc": {
    "methods": {
      "addEntity(address,string,string,string,string,string,bool)": {
        "details": "function that allows you to add a entity to the entities mapping",
        "params": {
          "_active": "a flag that shows if a entity is active or not",
          "_addressEntity": "the address that identify the entity in the blockchain",
          "_cif": "the cif of the entity",
          "_name": "the name of the entity",
          "_url_AOA": "the url that contains the AOA of the entity",
          "_url_createAID": "the url that contains the alastria ID of the entity",
          "_url_logo": "the url that contains the logo of the entity"
        }
      },
      "createAlastriaIdentity(bytes)": {
        "details": "Creates a new AlastriaProxy contract for an owner and recovery and allows an initial forward call which would be to set the registry in our case",
        "params": {
          "addPublicKeyCallData": "of the call to addKey function in AlastriaPublicKeyRegistry from the new deployed AlastriaProxy contract"
        }
      },
      "delegateCall(address,uint256,bytes)": {
        "details": "This method send a transaction trough the proxy of the sender"
      },
      "entitiesList()": {
        "details": "function that return the list of entities that are registered in the blockchain",
        "return": "array of address of entities"
      },
      "getEntity(address)": {
        "details": "function that returns all the information of a entity",
        "params": {
          "_addressEntity": "the address that identify the entity in the blockchain"
        },
        "return": "_name, _cif, _url_logo, _url_createAID, _url_AOA, _active of the entity you pass to the functions as a parameter"
      },
      "setCifEntity(address,string)": {
        "details": "function that allows you to change the CIF of the entity",
        "params": {
          "_addressEntity": "the address that identify the entity in the blockchain",
          "_cif": "the new cif of the entity"
        }
      },
      "setNameEntity(address,string)": {
        "details": "function that allows you to change the name of the entity",
        "params": {
          "_addressEntity": "the address that identify the entity in the blockchain",
          "_name": "the new name of the entity"
        }
      },
      "setUrlAOA(address,string)": {
        "details": "function that allows you to change the Url that contains the AOA of the entity",
        "params": {
          "_addressEntity": "the address that identify the entity in the blockchain",
          "_url_AOA": "the new url that contains the AOA of the entity"
        }
      },
      "setUrlCreateAID(address,string)": {
        "details": "function that allows you to change the Url that contains the Alastria ID of the entity",
        "params": {
          "_addressEntity": "the address that identify the entity in the blockchain",
          "_url_createAID": "the new url that contains the Alastria ID of the entity"
        }
      },
      "setUrlLogo(address,string)": {
        "details": "function that allows you to change the Url that contains the logo of the entity",
        "params": {
          "_addressEntity": "the address that identify the entity in the blockchain",
          "_url_logo": "the new url that contains the logo of the entity"
        }
      }
    }
  },
  "userdoc": {
    "methods": {}
  }
}