{
  "contractName": "AlastriaIdentityServiceProvider",
  "abi": [
    {
      "inputs": [],
      "payable": false,
      "stateMutability": "nonpayable",
      "type": "constructor"
    },
    {
      "constant": false,
      "inputs": [
        {
          "name": "_identityServiceProvider",
          "type": "address"
        }
      ],
      "name": "addIdentityServiceProvider",
      "outputs": [],
      "payable": false,
      "stateMutability": "nonpayable",
      "type": "function"
    },
    {
      "constant": false,
      "inputs": [
        {
          "name": "_identityServiceProvider",
          "type": "address"
        }
      ],
      "name": "deleteIdentityServiceProvider",
      "outputs": [],
      "payable": false,
      "stateMutability": "nonpayable",
      "type": "function"
    },
    {
      "constant": true,
      "inputs": [
        {
          "name": "_identityServiceProvider",
          "type": "address"
        }
      ],
      "name": "isIdentityServiceProvider",
      "outputs": [
        {
          "name": "",
          "type": "bool"
        }
      ],
      "payable": false,
      "stateMutability": "view",
      "type": "function"
    }
  ],
  "bytecode": "0x608060405234801561001057600080fd5b5060016000803373ffffffffffffffffffffffffffffffffffffffff1673ffffffffffffffffffffffffffffffffffffffff16815260200190815260200160002060006101000a81548160ff0219169083151502179055506102cb806100776000396000f300608060405260043610610057576000357c0100000000000000000000000000000000000000000000000000000000900463ffffffff1680630ebbbffc1461005c5780633bf472151461009f578063d024d9a4146100e2575b600080fd5b34801561006857600080fd5b5061009d600480360381019080803573ffffffffffffffffffffffffffffffffffffffff16906020019092919050505061013d565b005b3480156100ab57600080fd5b506100e0600480360381019080803573ffffffffffffffffffffffffffffffffffffffff1690602001909291905050506101c4565b005b3480156100ee57600080fd5b50610123600480360381019080803573ffffffffffffffffffffffffffffffffffffffff16906020019092919050505061024a565b604051808215151515815260200191505060405180910390f35b336101478161024a565b151561015257600080fd5b8161015c8161024a565b15151561016857600080fd5b60016000808573ffffffffffffffffffffffffffffffffffffffff1673ffffffffffffffffffffffffffffffffffffffff16815260200190815260200160002060006101000a81548160ff021916908315150217905550505050565b806101ce8161024a565b15156101d957600080fd5b336101e38161024a565b15156101ee57600080fd5b60008060008573ffffffffffffffffffffffffffffffffffffffff1673ffffffffffffffffffffffffffffffffffffffff16815260200190815260200160002060006101000a81548160ff021916908315150217905550505050565b60008060008373ffffffffffffffffffffffffffffffffffffffff1673ffffffffffffffffffffffffffffffffffffffff16815260200190815260200160002060009054906101000a900460ff1690509190505600a165627a7a72305820940ddfa9b7bc8ed95adbffc0a4b2c5904f0bd2e65871f47a290ee6d8245d668c0029",
  "source": "pragma solidity 0.4.23;\n\nimport \"../libs/Eidas.sol\";\n\ncontract AlastriaIdentityServiceProvider {\n\n    using Eidas for Eidas.EidasLevel;\n\n    mapping(address => bool) internal providers;\n\n    modifier onlyIdentityServiceProvider(address _identityServiceProvider) {\n        require (isIdentityServiceProvider(_identityServiceProvider));\n        _;\n    }\n\n    modifier notIdentityServiceProvider(address _identityServiceProvider) {\n        require (!isIdentityServiceProvider(_identityServiceProvider));\n        _;\n    }\n\n    constructor () public {\n\n        providers[msg.sender] = true;\n    }\n\n    function addIdentityServiceProvider(address _identityServiceProvider) public onlyIdentityServiceProvider(msg.sender) notIdentityServiceProvider(_identityServiceProvider) {\n        providers[_identityServiceProvider] = true;\n    }\n\n    function deleteIdentityServiceProvider(address _identityServiceProvider) public onlyIdentityServiceProvider(_identityServiceProvider) onlyIdentityServiceProvider(msg.sender) {\n        providers[_identityServiceProvider] = false;\n    }\n\n    function isIdentityServiceProvider(address _identityServiceProvider) public constant returns (bool) {\n        return providers[_identityServiceProvider];\n    }\n\n}\n",
  "sourcePath": "/Users/santiago/Documents/Teleco/Blockchain/Proyectos/5 - AlastriaIdentity/Pruebas_Quorum/Trabajo/monitor/AlaIdMonitor/contracts/identityManager/AlastriaIdentityServiceProvider.sol",
  "compiler": {
    "name": "solc",
    "version": "0.4.23+commit.124ca40d.Emscripten.clang"
  },
  "schemaVersion": "3.4.1",
  "updatedAt": "2021-05-26T14:23:06.070Z",
  "devdoc": {
    "methods": {}
  },
  "userdoc": {
    "methods": {}
  }
}