{
  "contractName": "AlastriaCredentialRegistry",
  "abi": [
    {
      "constant": true,
      "inputs": [
        {
          "name": "",
          "type": "address"
        },
        {
          "name": "",
          "type": "uint256"
        }
      ],
      "name": "issuerCredentialList",
      "outputs": [
        {
          "name": "",
          "type": "bytes32"
        }
      ],
      "payable": false,
      "stateMutability": "view",
      "type": "function"
    },
    {
      "constant": true,
      "inputs": [],
      "name": "version",
      "outputs": [
        {
          "name": "",
          "type": "int256"
        }
      ],
      "payable": false,
      "stateMutability": "view",
      "type": "function"
    },
    {
      "constant": true,
      "inputs": [],
      "name": "previousPublishedVersion",
      "outputs": [
        {
          "name": "",
          "type": "address"
        }
      ],
      "payable": false,
      "stateMutability": "view",
      "type": "function"
    },
    {
      "constant": true,
      "inputs": [
        {
          "name": "",
          "type": "address"
        },
        {
          "name": "",
          "type": "bytes32"
        }
      ],
      "name": "subjectCredentialRegistry",
      "outputs": [
        {
          "name": "exists",
          "type": "bool"
        },
        {
          "name": "status",
          "type": "uint8"
        },
        {
          "name": "URI",
          "type": "string"
        }
      ],
      "payable": false,
      "stateMutability": "view",
      "type": "function"
    },
    {
      "constant": true,
      "inputs": [
        {
          "name": "",
          "type": "address"
        },
        {
          "name": "",
          "type": "uint256"
        }
      ],
      "name": "subjectCredentialList",
      "outputs": [
        {
          "name": "",
          "type": "bytes32"
        }
      ],
      "payable": false,
      "stateMutability": "view",
      "type": "function"
    },
    {
      "inputs": [
        {
          "name": "_previousPublishedVersion",
          "type": "address"
        }
      ],
      "payable": false,
      "stateMutability": "nonpayable",
      "type": "constructor"
    },
    {
      "anonymous": false,
      "inputs": [
        {
          "indexed": false,
          "name": "subjectCredentialHash",
          "type": "bytes32"
        }
      ],
      "name": "SubjectCredentialDeleted",
      "type": "event"
    },
    {
      "anonymous": false,
      "inputs": [
        {
          "indexed": false,
          "name": "issuerCredentialHash",
          "type": "bytes32"
        },
        {
          "indexed": false,
          "name": "status",
          "type": "uint8"
        }
      ],
      "name": "IssuerCredentialRevoked",
      "type": "event"
    },
    {
      "constant": false,
      "inputs": [
        {
          "name": "subjectCredentialHash",
          "type": "bytes32"
        },
        {
          "name": "URI",
          "type": "string"
        }
      ],
      "name": "addSubjectCredential",
      "outputs": [],
      "payable": false,
      "stateMutability": "nonpayable",
      "type": "function"
    },
    {
      "constant": false,
      "inputs": [
        {
          "name": "issuerCredentialHash",
          "type": "bytes32"
        }
      ],
      "name": "addIssuerCredential",
      "outputs": [],
      "payable": false,
      "stateMutability": "nonpayable",
      "type": "function"
    },
    {
      "constant": false,
      "inputs": [
        {
          "name": "subjectCredentialHash",
          "type": "bytes32"
        }
      ],
      "name": "deleteSubjectCredential",
      "outputs": [],
      "payable": false,
      "stateMutability": "nonpayable",
      "type": "function"
    },
    {
      "constant": true,
      "inputs": [
        {
          "name": "subject",
          "type": "address"
        },
        {
          "name": "subjectCredentialHash",
          "type": "bytes32"
        }
      ],
      "name": "getSubjectCredentialStatus",
      "outputs": [
        {
          "name": "exists",
          "type": "bool"
        },
        {
          "name": "status",
          "type": "uint8"
        }
      ],
      "payable": false,
      "stateMutability": "view",
      "type": "function"
    },
    {
      "constant": true,
      "inputs": [
        {
          "name": "subject",
          "type": "address"
        }
      ],
      "name": "getSubjectCredentialList",
      "outputs": [
        {
          "name": "",
          "type": "uint256"
        },
        {
          "name": "",
          "type": "bytes32[]"
        }
      ],
      "payable": false,
      "stateMutability": "view",
      "type": "function"
    },
    {
      "constant": false,
      "inputs": [
        {
          "name": "issuerCredentialHash",
          "type": "bytes32"
        },
        {
          "name": "status",
          "type": "uint8"
        }
      ],
      "name": "updateCredentialStatus",
      "outputs": [],
      "payable": false,
      "stateMutability": "nonpayable",
      "type": "function"
    },
    {
      "constant": true,
      "inputs": [
        {
          "name": "issuer",
          "type": "address"
        },
        {
          "name": "issuerCredentialHash",
          "type": "bytes32"
        }
      ],
      "name": "getIssuerCredentialStatus",
      "outputs": [
        {
          "name": "exists",
          "type": "bool"
        },
        {
          "name": "status",
          "type": "uint8"
        }
      ],
      "payable": false,
      "stateMutability": "view",
      "type": "function"
    },
    {
      "constant": true,
      "inputs": [
        {
          "name": "subjectStatus",
          "type": "uint8"
        },
        {
          "name": "issuerStatus",
          "type": "uint8"
        }
      ],
      "name": "getCredentialStatus",
      "outputs": [
        {
          "name": "",
          "type": "uint8"
        }
      ],
      "payable": false,
      "stateMutability": "pure",
      "type": "function"
    }
  ],
  "bytecode": "0x608060405234801561001057600080fd5b5060405160208061127783398101806040528101908080519060200190929190505050600360008190555080600160006101000a81548173ffffffffffffffffffffffffffffffffffffffff021916908373ffffffffffffffffffffffffffffffffffffffff160217905550506111eb8061008c6000396000f3006080604052600436106100c5576000357c0100000000000000000000000000000000000000000000000000000000900463ffffffff16806341e61ff8146100ca5780634510b1cb1461013357806354fd4d50146101d257806355d64732146101fd5780635faf7d941461027b5780636104464f146102da5780636792223d14610331578063aeda232a1461041b578063c43f6b3614610499578063dc11e39b14610502578063dd517e1014610533578063dff9a1a914610571578063e04ce02c146105a2575b600080fd5b3480156100d657600080fd5b50610115600480360381019080803573ffffffffffffffffffffffffffffffffffffffff16906020019092919080359060200190929190505050610619565b60405180826000191660001916815260200191505060405180910390f35b34801561013f57600080fd5b50610174600480360381019080803573ffffffffffffffffffffffffffffffffffffffff169060200190929190505050610649565b6040518083815260200180602001828103825283818151815260200191508051906020019060200280838360005b838110156101bd5780820151818401526020810190506101a2565b50505050905001935050505060405180910390f35b3480156101de57600080fd5b506101e761072e565b6040518082815260200191505060405180910390f35b34801561020957600080fd5b5061024c600480360381019080803573ffffffffffffffffffffffffffffffffffffffff1690602001909291908035600019169060200190929190505050610734565b604051808315151515815260200182600381111561026657fe5b60ff1681526020019250505060405180910390f35b34801561028757600080fd5b506102b6600480360381019080803560ff169060200190929190803560ff169060200190929190505050610801565b604051808260038111156102c657fe5b60ff16815260200191505060405180910390f35b3480156102e657600080fd5b506102ef6108c8565b604051808273ffffffffffffffffffffffffffffffffffffffff1673ffffffffffffffffffffffffffffffffffffffff16815260200191505060405180910390f35b34801561033d57600080fd5b50610380600480360381019080803573ffffffffffffffffffffffffffffffffffffffff16906020019092919080356000191690602001909291905050506108ee565b604051808415151515815260200183600381111561039a57fe5b60ff16815260200180602001828103825283818151815260200191508051906020019080838360005b838110156103de5780820151818401526020810190506103c3565b50505050905090810190601f16801561040b5780820380516001836020036101000a031916815260200191505b5094505050505060405180910390f35b34801561042757600080fd5b5061046a600480360381019080803573ffffffffffffffffffffffffffffffffffffffff16906020019092919080356000191690602001909291905050506109d7565b604051808315151515815260200182600381111561048457fe5b60ff1681526020019250505060405180910390f35b3480156104a557600080fd5b506104e4600480360381019080803573ffffffffffffffffffffffffffffffffffffffff16906020019092919080359060200190929190505050610aa4565b60405180826000191660001916815260200191505060405180910390f35b34801561050e57600080fd5b506105316004803603810190808035600019169060200190929190505050610ad4565b005b34801561053f57600080fd5b5061056f6004803603810190808035600019169060200190929190803560ff169060200190929190505050610c83565b005b34801561057d57600080fd5b506105a06004803603810190808035600019169060200190929190505050610e36565b005b3480156105ae57600080fd5b506106176004803603810190808035600019169060200190929190803590602001908201803590602001908080601f0160208091040260200160405190810160405280939291908181526020018383808284378201915050505050509192919290505050610f46565b005b60056020528160005260406000208181548110151561063457fe5b90600052602060002001600091509150505481565b60006060600360008473ffffffffffffffffffffffffffffffffffffffff1673ffffffffffffffffffffffffffffffffffffffff16815260200190815260200160002080549050600360008573ffffffffffffffffffffffffffffffffffffffff1673ffffffffffffffffffffffffffffffffffffffff1681526020019081526020016000208080548060200260200160405190810160405280929190818152602001828054801561071e57602002820191906000526020600020905b81546000191681526020019060010190808311610706575b5050505050905091509150915091565b60005481565b600080600084600073ffffffffffffffffffffffffffffffffffffffff168173ffffffffffffffffffffffffffffffffffffffff161415151561077657600080fd5b600260008773ffffffffffffffffffffffffffffffffffffffff1673ffffffffffffffffffffffffffffffffffffffff1681526020019081526020016000206000866000191660001916815260200190815260200160002091508160000160009054906101000a900460ff168260000160019054906101000a900460ff169350935050509250929050565b6000826000600381111561081157fe5b81600381111561081d57fe5b10158015610841575060038081111561083257fe5b81600381111561083e57fe5b11155b151561084c57600080fd5b826000600381111561085a57fe5b81600381111561086657fe5b1015801561088a575060038081111561087b57fe5b81600381111561088757fe5b11155b151561089557600080fd5b8360038111156108a157fe5b8560038111156108ad57fe5b1015156108bc578492506108c0565b8392505b505092915050565b600160009054906101000a900473ffffffffffffffffffffffffffffffffffffffff1681565b6002602052816000526040600020602052806000526040600020600091509150508060000160009054906101000a900460ff16908060000160019054906101000a900460ff1690806001018054600181600116156101000203166002900480601f0160208091040260200160405190810160405280929190818152602001828054600181600116156101000203166002900480156109cd5780601f106109a2576101008083540402835291602001916109cd565b820191906000526020600020905b8154815290600101906020018083116109b057829003601f168201915b5050505050905083565b600080600084600073ffffffffffffffffffffffffffffffffffffffff168173ffffffffffffffffffffffffffffffffffffffff1614151515610a1957600080fd5b600460008773ffffffffffffffffffffffffffffffffffffffff1673ffffffffffffffffffffffffffffffffffffffff1681526020019081526020016000206000866000191660001916815260200190815260200160002091508160000160009054906101000a900460ff168260000160019054906101000a900460ff169350935050509250929050565b600360205281600052604060002081815481101515610abf57fe5b90600052602060002001600091509150505481565b600460003373ffffffffffffffffffffffffffffffffffffffff1673ffffffffffffffffffffffffffffffffffffffff1681526020019081526020016000206000826000191660001916815260200190815260200160002060000160009054906101000a900460ff16151515610b4957600080fd5b604080519081016040528060011515815260200160006003811115610b6a57fe5b815250600460003373ffffffffffffffffffffffffffffffffffffffff1673ffffffffffffffffffffffffffffffffffffffff1681526020019081526020016000206000836000191660001916815260200190815260200160002060008201518160000160006101000a81548160ff02191690831515021790555060208201518160000160016101000a81548160ff02191690836003811115610c0957fe5b0217905550905050600560003373ffffffffffffffffffffffffffffffffffffffff1673ffffffffffffffffffffffffffffffffffffffff16815260200190815260200160002081908060018154018082558091505090600182039060005260206000200160009091929091909150906000191690555050565b60008160006003811115610c9357fe5b816003811115610c9f57fe5b10158015610cc35750600380811115610cb457fe5b816003811115610cc057fe5b11155b1515610cce57600080fd5b600460003373ffffffffffffffffffffffffffffffffffffffff1673ffffffffffffffffffffffffffffffffffffffff1681526020019081526020016000206000856000191660001916815260200190815260200160002091508160000160019054906101000a900460ff166003811115610d4557fe5b836003811115610d5157fe5b1115610e305760016003811115610d6457fe5b836003811115610d7057fe5b1480610d92575060026003811115610d8457fe5b836003811115610d9057fe5b145b15610e2f5760018260000160006101000a81548160ff021916908315150217905550828260000160016101000a81548160ff02191690836003811115610dd457fe5b02179055507f0bc6eed115cb12ced57d22ce88a4be72a3b052cf01e5a1947a1f901f8ff26b1a8484604051808360001916600019168152602001826003811115610e1a57fe5b60ff1681526020019250505060405180910390a15b5b50505050565b6000600260003373ffffffffffffffffffffffffffffffffffffffff1673ffffffffffffffffffffffffffffffffffffffff1681526020019081526020016000206000836000191660001916815260200190815260200160002090508060000160009054906101000a900460ff168015610ed75750600380811115610eb757fe5b8160000160019054906101000a900460ff166003811115610ed457fe5b14155b15610f425760038160000160016101000a81548160ff02191690836003811115610efd57fe5b02179055507fc83f14fb22d6787113e4b492b1b27daac6284e516a3c61d454359fd426d04c298260405180826000191660001916815260200191505060405180910390a15b5050565b600260003373ffffffffffffffffffffffffffffffffffffffff1673ffffffffffffffffffffffffffffffffffffffff1681526020019081526020016000206000836000191660001916815260200190815260200160002060000160009054906101000a900460ff16151515610fbb57600080fd5b60606040519081016040528060011515815260200160006003811115610fdd57fe5b815260200182815250600260003373ffffffffffffffffffffffffffffffffffffffff1673ffffffffffffffffffffffffffffffffffffffff1681526020019081526020016000206000846000191660001916815260200190815260200160002060008201518160000160006101000a81548160ff02191690831515021790555060208201518160000160016101000a81548160ff0219169083600381111561108257fe5b021790555060408201518160010190805190602001906110a392919061111a565b50905050600360003373ffffffffffffffffffffffffffffffffffffffff1673ffffffffffffffffffffffffffffffffffffffff1681526020019081526020016000208290806001815401808255809150509060018203906000526020600020016000909192909190915090600019169055505050565b828054600181600116156101000203166002900490600052602060002090601f016020900481019282601f1061115b57805160ff1916838001178555611189565b82800160010185558215611189579182015b8281111561118857825182559160200191906001019061116d565b5b509050611196919061119a565b5090565b6111bc91905b808211156111b85760008160009055506001016111a0565b5090565b905600a165627a7a72305820daace1968374e63cf4307643d426727259e433c32c64bd47c38b580d0e9284f50029",
  "source": "pragma solidity 0.4.23;\n\n\ncontract AlastriaCredentialRegistry {\n\n    // SubjectCredential are registered under Hash(Credential) in a (subject, hash) mapping\n    // IssuerCredentials are registered under Hash (Credentials + SubjectCredentialSignature) in a (issuer, hash) mapping\n    // A List of Subject credential hashes is gathered in a (subject) mapping\n    // To Think About: Make a unique Credential struct and just one mapping subjectCredentialRegistry instead one for subjects and one for issuers\n    // To Do: Return credential URI. Should only be available to Subject. Mainly as a backup or main index when there are more than one device.\n    // Could be done from credential mapping in another get function only for subject\n    // or in getSubjectCredentialList (changing URI from one mapping to the other)\n    // To Do: make AlastriaCredentialRegistry similar to AlastriaClaimRegistry.\n\n    // Variables\n    int public version;\n    address public previousPublishedVersion;\n\n    // SubjectCredential: Initially Valid: Only DeletedBySubject\n    // IssuerCredentials: Initially Valid: Only AskIssuer or Revoked, no backwards transitions.\n    enum Status {Valid, AskIssuer, Revoked, DeletedBySubject}\n    Status constant STATUS_FIRST = Status.Valid;\n    Status constant STATUS_LAST = Status.DeletedBySubject;\n\n    struct SubjectCredential {\n        bool exists;\n        Status status;\n        string URI;\n    }\n\n    // Mapping subject, hash (JSON credential)\n    mapping(address => mapping(bytes32 => SubjectCredential)) public subjectCredentialRegistry;\n    mapping(address => bytes32[]) public subjectCredentialList;\n\n    struct IssuerCredential {\n        bool exists;\n        Status status;\n    }\n\n    // Mapping issuer, hash (JSON credential + CredentialSignature)\n    mapping(address => mapping(bytes32 => IssuerCredential)) private issuerCredentialRegistry;\n    mapping(address => bytes32[]) public issuerCredentialList;\n\n    // Events. Just for changes, not for initial set\n    event SubjectCredentialDeleted (bytes32 subjectCredentialHash);\n    event IssuerCredentialRevoked (bytes32 issuerCredentialHash, Status status);\n\n    //Modifiers\n    modifier validAddress(address addr) {//protects against some weird attacks\n        require(addr != address(0));\n        _;\n    }\n\n    modifier validStatus (Status status) { // solidity currently check on use not at function call\n        require (status >= STATUS_FIRST && status <= STATUS_LAST);\n        _;\n    }\n\n    // Functions\n    constructor (address _previousPublishedVersion) public {\n        version = 3;\n        previousPublishedVersion = _previousPublishedVersion;\n    }\n\n    function addSubjectCredential(bytes32 subjectCredentialHash, string URI) public {\n        require(!subjectCredentialRegistry[msg.sender][subjectCredentialHash].exists);\n        subjectCredentialRegistry[msg.sender][subjectCredentialHash] = SubjectCredential(true, Status.Valid, URI);\n        subjectCredentialList[msg.sender].push(subjectCredentialHash);\n    }\n\n    function addIssuerCredential(bytes32 issuerCredentialHash) public {\n        require(!issuerCredentialRegistry[msg.sender][issuerCredentialHash].exists);\n        issuerCredentialRegistry[msg.sender][issuerCredentialHash] = IssuerCredential(true, Status.Valid);\n        issuerCredentialList[msg.sender].push(issuerCredentialHash);\n    }\n\n    function deleteSubjectCredential(bytes32 subjectCredentialHash) public {\n        SubjectCredential storage value = subjectCredentialRegistry[msg.sender][subjectCredentialHash];\n        // only existent\n        if (value.exists && value.status != Status.DeletedBySubject) {\n            value.status = Status.DeletedBySubject;\n            emit SubjectCredentialDeleted(subjectCredentialHash);\n        }\n    }\n\n    // If the credential does not exists the return is a void credential\n    // If we want a log, should we add an event?\n    function getSubjectCredentialStatus(address subject, bytes32 subjectCredentialHash) view public validAddress(subject) returns (bool exists, Status status) {\n        SubjectCredential storage value = subjectCredentialRegistry[subject][subjectCredentialHash];\n        return (value.exists, value.status);\n    }\n\n    function getSubjectCredentialList(address subject) public view returns (uint, bytes32[]) {\n        return (subjectCredentialList[subject].length, subjectCredentialList[subject]);\n    }\n\n    function updateCredentialStatus(bytes32 issuerCredentialHash, Status status) validStatus (status) public {\n        IssuerCredential storage value = issuerCredentialRegistry[msg.sender][issuerCredentialHash];\n        // No backward transition, only AskIssuer or Revoked\n        if (status > value.status) {\n            if (status == Status.AskIssuer || status == Status.Revoked) {\n                value.exists = true;\n                value.status = status;\n                emit IssuerCredentialRevoked(issuerCredentialHash, status);\n            }\n        }\n    }\n\n    // If the credential does not exists the return is a void credential\n    // If we want a log, should we add an event?\n    function getIssuerCredentialStatus(address issuer, bytes32 issuerCredentialHash) view public validAddress(issuer) returns (bool exists, Status status) {\n        IssuerCredential storage value = issuerCredentialRegistry[issuer][issuerCredentialHash];\n        return (value.exists, value.status);\n    }\n\n    // Utility function\n    // Defining three status functions avoid linking the subject to the issuer or the corresponding hashes\n    function getCredentialStatus(Status subjectStatus, Status issuerStatus) pure public validStatus(subjectStatus) validStatus(issuerStatus) returns (Status){\n        if (subjectStatus >= issuerStatus) {\n            return subjectStatus;\n        } else {\n            return issuerStatus;\n        }\n    }\n}\n",
  "sourcePath": "/Users/santiago/Documents/Teleco/Blockchain/Proyectos/5 - AlastriaIdentity/Pruebas_Quorum/Trabajo/monitor/AlaIdMonitor/contracts/registry/AlastriaCredentialRegistry.sol",
  "compiler": {
    "name": "solc",
    "version": "0.4.23+commit.124ca40d.Emscripten.clang"
  },
  "schemaVersion": "3.4.1",
  "updatedAt": "2021-05-26T14:23:06.073Z",
  "devdoc": {
    "methods": {}
  },
  "userdoc": {
    "methods": {}
  }
}