{
  "contractName": "AlastriaPublicKeyRegistry",
  "abi": [
    {
      "constant": true,
      "inputs": [],
      "name": "version",
      "outputs": [
        {
          "name": "",
          "type": "int256"
        }
      ],
      "payable": false,
      "stateMutability": "view",
      "type": "function"
    },
    {
      "constant": true,
      "inputs": [],
      "name": "previousPublishedVersion",
      "outputs": [
        {
          "name": "",
          "type": "address"
        }
      ],
      "payable": false,
      "stateMutability": "view",
      "type": "function"
    },
    {
      "constant": true,
      "inputs": [
        {
          "name": "",
          "type": "address"
        },
        {
          "name": "",
          "type": "uint256"
        }
      ],
      "name": "publicKeyList",
      "outputs": [
        {
          "name": "",
          "type": "string"
        }
      ],
      "payable": false,
      "stateMutability": "view",
      "type": "function"
    },
    {
      "inputs": [
        {
          "name": "_previousPublishedVersion",
          "type": "address"
        }
      ],
      "payable": false,
      "stateMutability": "nonpayable",
      "type": "constructor"
    },
    {
      "anonymous": false,
      "inputs": [
        {
          "indexed": false,
          "name": "publicKey",
          "type": "string"
        }
      ],
      "name": "PublicKeyDeleted",
      "type": "event"
    },
    {
      "anonymous": false,
      "inputs": [
        {
          "indexed": false,
          "name": "publicKey",
          "type": "string"
        }
      ],
      "name": "PublicKeyRevoked",
      "type": "event"
    },
    {
      "constant": false,
      "inputs": [
        {
          "name": "publicKey",
          "type": "string"
        }
      ],
      "name": "addKey",
      "outputs": [],
      "payable": false,
      "stateMutability": "nonpayable",
      "type": "function"
    },
    {
      "constant": false,
      "inputs": [
        {
          "name": "publicKey",
          "type": "string"
        }
      ],
      "name": "revokePublicKey",
      "outputs": [],
      "payable": false,
      "stateMutability": "nonpayable",
      "type": "function"
    },
    {
      "constant": false,
      "inputs": [
        {
          "name": "publicKey",
          "type": "string"
        }
      ],
      "name": "deletePublicKey",
      "outputs": [],
      "payable": false,
      "stateMutability": "nonpayable",
      "type": "function"
    },
    {
      "constant": true,
      "inputs": [
        {
          "name": "subject",
          "type": "address"
        }
      ],
      "name": "getCurrentPublicKey",
      "outputs": [
        {
          "name": "",
          "type": "string"
        }
      ],
      "payable": false,
      "stateMutability": "view",
      "type": "function"
    },
    {
      "constant": true,
      "inputs": [
        {
          "name": "subject",
          "type": "address"
        },
        {
          "name": "publicKey",
          "type": "bytes32"
        }
      ],
      "name": "getPublicKeyStatus",
      "outputs": [
        {
          "name": "exists",
          "type": "bool"
        },
        {
          "name": "status",
          "type": "uint8"
        },
        {
          "name": "startDate",
          "type": "uint256"
        },
        {
          "name": "endDate",
          "type": "uint256"
        }
      ],
      "payable": false,
      "stateMutability": "view",
      "type": "function"
    }
  ],
  "bytecode": "0x608060405234801561001057600080fd5b50604051602080610e8283398101806040528101908080519060200190929190505050600360008190555080600160006101000a81548173ffffffffffffffffffffffffffffffffffffffff021916908373ffffffffffffffffffffffffffffffffffffffff16021790555050610df68061008c6000396000f30060806040526004361061008e576000357c0100000000000000000000000000000000000000000000000000000000900463ffffffff1680631226f6a51461009357806331f7f2591461011f57806336241962146101db57806350382c1a1461024457806354fd4d50146102ad5780636104464f146102d8578063c000ceee1461032f578063d16df8ec146103f5575b600080fd5b34801561009f57600080fd5b506100e2600480360381019080803573ffffffffffffffffffffffffffffffffffffffff169060200190929190803560001916906020019092919050505061045e565b60405180851515151581526020018460018111156100fc57fe5b60ff16815260200183815260200182815260200194505050505060405180910390f35b34801561012b57600080fd5b50610160600480360381019080803573ffffffffffffffffffffffffffffffffffffffff16906020019092919050505061053e565b6040518080602001828103825283818151815260200191508051906020019080838360005b838110156101a0578082015181840152602081019050610185565b50505050905090810190601f1680156101cd5780820380516001836020036101000a031916815260200191505b509250505060405180910390f35b3480156101e757600080fd5b50610242600480360381019080803590602001908201803590602001908080601f016020809104026020016040519081016040528093929190818152602001838380828437820191505050505050919291929050505061071d565b005b34801561025057600080fd5b506102ab600480360381019080803590602001908201803590602001908080601f0160208091040260200160405190810160405280939291908181526020018383808284378201915050505050509192919290505050610868565b005b3480156102b957600080fd5b506102c2610a6d565b6040518082815260200191505060405180910390f35b3480156102e457600080fd5b506102ed610a73565b604051808273ffffffffffffffffffffffffffffffffffffffff1673ffffffffffffffffffffffffffffffffffffffff16815260200191505060405180910390f35b34801561033b57600080fd5b5061037a600480360381019080803573ffffffffffffffffffffffffffffffffffffffff16906020019092919080359060200190929190505050610a99565b6040518080602001828103825283818151815260200191508051906020019080838360005b838110156103ba57808201518184015260208101905061039f565b50505050905090810190601f1680156103e75780820380516001836020036101000a031916815260200191505b509250505060405180910390f35b34801561040157600080fd5b5061045c600480360381019080803590602001908201803590602001908080601f0160208091040260200160405190810160405280939291908181526020018383808284378201915050505050509192919290505050610b61565b005b600080600080600086600073ffffffffffffffffffffffffffffffffffffffff168173ffffffffffffffffffffffffffffffffffffffff16141515156104a357600080fd5b600260008973ffffffffffffffffffffffffffffffffffffffff1673ffffffffffffffffffffffffffffffffffffffff1681526020019081526020016000206000886000191660001916815260200190815260200160002091508160000160009054906101000a900460ff168260000160019054906101000a900460ff16836001015484600201549550955095509550505092959194509250565b606081600073ffffffffffffffffffffffffffffffffffffffff168173ffffffffffffffffffffffffffffffffffffffff161415151561057d57600080fd5b6000600360008573ffffffffffffffffffffffffffffffffffffffff1673ffffffffffffffffffffffffffffffffffffffff16815260200190815260200160002080549050111561070357600360008473ffffffffffffffffffffffffffffffffffffffff1673ffffffffffffffffffffffffffffffffffffffff1681526020019081526020016000206001600360008673ffffffffffffffffffffffffffffffffffffffff1673ffffffffffffffffffffffffffffffffffffffff168152602001908152602001600020805490500381548110151561065957fe5b906000526020600020018054600181600116156101000203166002900480601f0160208091040260200160405190810160405280929190818152602001828054600181600116156101000203166002900480156106f75780601f106106cc576101008083540402835291602001916106f7565b820191906000526020600020905b8154815290600101906020018083116106da57829003601f168201915b50505050509150610717565b602060405190810160405280600081525091505b50919050565b6000600260003373ffffffffffffffffffffffffffffffffffffffff1673ffffffffffffffffffffffffffffffffffffffff168152602001908152602001600020600061076984610cb9565b6000191660001916815260200190815260200160002090508060000160009054906101000a900460ff16156108645760018160000160016101000a81548160ff021916908360018111156107b957fe5b02179055504281600201819055507f590ada3b231515dd26dca05728f31024554fc0eca9ef33aa1d623bc4d7d5fd50826040518080602001828103825283818151815260200191508051906020019080838360005b8381101561082957808201518184015260208101905061080e565b50505050905090810190601f1680156108565780820380516001836020036101000a031916815260200191505b509250505060405180910390a15b5050565b6000600260003373ffffffffffffffffffffffffffffffffffffffff1673ffffffffffffffffffffffffffffffffffffffff16815260200190815260200160002060006108b484610cb9565b6000191660001916815260200190815260200160002060000160009054906101000a900460ff161515156108e757600080fd5b4290506108fb6108f63361053e565b610b61565b6080604051908101604052806001151581526020016000600181111561091d57fe5b81526020018281526020016000815250600260003373ffffffffffffffffffffffffffffffffffffffff1673ffffffffffffffffffffffffffffffffffffffff168152602001908152602001600020600061097785610cb9565b6000191660001916815260200190815260200160002060008201518160000160006101000a81548160ff02191690831515021790555060208201518160000160016101000a81548160ff021916908360018111156109d157fe5b02179055506040820151816001015560608201518160020155905050600360003373ffffffffffffffffffffffffffffffffffffffff1673ffffffffffffffffffffffffffffffffffffffff168152602001908152602001600020829080600181540180825580915050906001820390600052602060002001600090919290919091509080519060200190610a67929190610d25565b50505050565b60005481565b600160009054906101000a900473ffffffffffffffffffffffffffffffffffffffff1681565b600360205281600052604060002081815481101515610ab457fe5b90600052602060002001600091509150508054600181600116156101000203166002900480601f016020809104026020016040519081016040528092919081815260200182805460018160011615610100020316600290048015610b595780601f10610b2e57610100808354040283529160200191610b59565b820191906000526020600020905b815481529060010190602001808311610b3c57829003601f168201915b505050505081565b6000600260003373ffffffffffffffffffffffffffffffffffffffff1673ffffffffffffffffffffffffffffffffffffffff1681526020019081526020016000206000610bad84610cb9565b6000191660001916815260200190815260200160002090508060000160009054906101000a900460ff168015610c0a5750600180811115610bea57fe5b8160000160019054906101000a900460ff166001811115610c0757fe5b14155b15610cb5574281600201819055507f41d9cf228775966745bd16590f046aff534ab47ea15fc80127ddae02abc8bf34826040518080602001828103825283818151815260200191508051906020019080838360005b83811015610c7a578082015181840152602081019050610c5f565b50505050905090810190601f168015610ca75780820380516001836020036101000a031916815260200191505b509250505060405180910390a15b5050565b6000816040518082805190602001908083835b602083101515610cf15780518252602082019150602081019050602083039250610ccc565b6001836020036101000a03801982511681845116808217855250505050505090500191505060405180910390209050919050565b828054600181600116156101000203166002900490600052602060002090601f016020900481019282601f10610d6657805160ff1916838001178555610d94565b82800160010185558215610d94579182015b82811115610d93578251825591602001919060010190610d78565b5b509050610da19190610da5565b5090565b610dc791905b80821115610dc3576000816000905550600101610dab565b5090565b905600a165627a7a72305820e366c3dac033d86bf739e8146c0390ff95b7d6b30ec8273767bf94e70c2ea16f0029",
  "source": "pragma solidity 0.4.23;\n\n\ncontract AlastriaPublicKeyRegistry {\n\n    // This contracts registers and makes publicly avalaible the AlastriaID Public Keys hash and status, current and past.\n\n    //To Do: Should we add RevokedBySubject Status?\n\n    //Variables\n    int public version;\n    address public previousPublishedVersion;\n\n    // Initially Valid: could only be changed to DeletedBySubject for the time being.\n    enum Status {Valid, DeletedBySubject}\n    struct PublicKey {\n        bool exists;\n        Status status; // Deleted keys shouldnt be used, not even to check previous signatures.\n        uint startDate;\n        uint endDate;\n    }\n\n    // Mapping (subject, publickey)\n    mapping(address => mapping(bytes32 => PublicKey)) private publicKeyRegistry;\n    // mapping subject => publickey\n    mapping(address => string[]) public publicKeyList;\n\n    //Events, just for revocation and deletion\n    event PublicKeyDeleted (string publicKey);\n    event PublicKeyRevoked (string publicKey);\n\n    //Modifiers\n    modifier validAddress(address addr) {//protects against some weird attacks\n        require(addr != address(0));\n        _;\n    }\n\n    //Functions\n    constructor (address _previousPublishedVersion) public {\n        version = 3;\n        previousPublishedVersion = _previousPublishedVersion;\n    }\n\n    // Sets new key and revokes previous\n    function addKey(string memory publicKey) public {\n        require(!publicKeyRegistry[msg.sender][getKeyHash(publicKey)].exists);\n        uint changeDate = now;\n        revokePublicKey(getCurrentPublicKey(msg.sender));\n        publicKeyRegistry[msg.sender][getKeyHash(publicKey)] = PublicKey(\n            true,\n            Status.Valid,\n            changeDate,\n            0\n        );\n        publicKeyList[msg.sender].push(publicKey);\n    }\n\n    function revokePublicKey(string memory publicKey) public {\n        PublicKey storage value = publicKeyRegistry[msg.sender][getKeyHash(publicKey)];\n        // only existent no backtransition\n        if (value.exists && value.status != Status.DeletedBySubject) {\n            value.endDate = now;\n            emit PublicKeyRevoked(publicKey);\n        }\n    }\n\n    function deletePublicKey(string memory publicKey) public {\n        PublicKey storage value = publicKeyRegistry[msg.sender][getKeyHash(publicKey)];\n        // only existent\n        if (value.exists) {\n            value.status = Status.DeletedBySubject;\n            value.endDate = now;\n            emit PublicKeyDeleted(publicKey);\n        }\n    }\n\n    function getCurrentPublicKey(address subject) view public validAddress(subject) returns (string) {\n        if (publicKeyList[subject].length > 0) {\n            return publicKeyList[subject][publicKeyList[subject].length - 1];\n        } else {\n            return \"\";\n        }\n    }\n\n    function getPublicKeyStatus(address subject, bytes32 publicKey) view public validAddress(subject)\n        returns (bool exists, Status status, uint startDate, uint endDate){\n        PublicKey storage value = publicKeyRegistry[subject][publicKey];\n        return (value.exists, value.status, value.startDate, value.endDate);\n    }\n    \n    function getKeyHash(string memory inputKey) internal pure returns(bytes32){\n        return keccak256(inputKey);\n    }\n\n}\n",
  "sourcePath": "/Users/santiago/Documents/Teleco/Blockchain/Proyectos/5 - AlastriaIdentity/Pruebas_Quorum/Trabajo/monitor/AlaIdMonitor/contracts/registry/AlastriaPublicKeyRegistry.sol",
  "compiler": {
    "name": "solc",
    "version": "0.4.23+commit.124ca40d.Emscripten.clang"
  },
  "schemaVersion": "3.4.1",
  "updatedAt": "2021-05-26T14:23:06.078Z",
  "devdoc": {
    "methods": {}
  },
  "userdoc": {
    "methods": {}
  }
}