{
  "contractName": "AlastriaIdentityIssuer",
  "abi": [
    {
      "inputs": [],
      "payable": false,
      "stateMutability": "nonpayable",
      "type": "constructor"
    },
    {
      "constant": false,
      "inputs": [
        {
          "name": "_identityIssuer",
          "type": "address"
        },
        {
          "name": "_level",
          "type": "uint8"
        }
      ],
      "name": "addIdentityIssuer",
      "outputs": [],
      "payable": false,
      "stateMutability": "nonpayable",
      "type": "function"
    },
    {
      "constant": false,
      "inputs": [
        {
          "name": "_identityIssuer",
          "type": "address"
        },
        {
          "name": "_level",
          "type": "uint8"
        }
      ],
      "name": "updateIdentityIssuerEidasLevel",
      "outputs": [],
      "payable": false,
      "stateMutability": "nonpayable",
      "type": "function"
    },
    {
      "constant": false,
      "inputs": [
        {
          "name": "_identityIssuer",
          "type": "address"
        }
      ],
      "name": "deleteIdentityIssuer",
      "outputs": [],
      "payable": false,
      "stateMutability": "nonpayable",
      "type": "function"
    },
    {
      "constant": true,
      "inputs": [
        {
          "name": "_identityIssuer",
          "type": "address"
        }
      ],
      "name": "getEidasLevel",
      "outputs": [
        {
          "name": "",
          "type": "uint8"
        }
      ],
      "payable": false,
      "stateMutability": "view",
      "type": "function"
    },
    {
      "constant": true,
      "inputs": [
        {
          "name": "_identityIssuer",
          "type": "address"
        }
      ],
      "name": "isIdentityIssuer",
      "outputs": [
        {
          "name": "",
          "type": "bool"
        }
      ],
      "payable": false,
      "stateMutability": "view",
      "type": "function"
    }
  ],
  "bytecode": "0x608060405234801561001057600080fd5b50600060048160000160006101000a81548160ff0219169083600481111561003457fe5b021790555060018160000160016101000a81548160ff021916908315150217905550806000803373ffffffffffffffffffffffffffffffffffffffff1673ffffffffffffffffffffffffffffffffffffffff1681526020019081526020016000206000820160009054906101000a900460ff168160000160006101000a81548160ff021916908360048111156100c657fe5b02179055506000820160019054906101000a900460ff168160000160016101000a81548160ff021916908315150217905550905050506107d88061010b6000396000f30060806040526004361061006d576000357c0100000000000000000000000000000000000000000000000000000000900463ffffffff1680630e5a4fbb1461007257806344963610146100d75780636554adf014610127578063889776a814610182578063cb691599146101d2575b600080fd5b34801561007e57600080fd5b506100b3600480360381019080803573ffffffffffffffffffffffffffffffffffffffff169060200190929190505050610215565b604051808260048111156100c357fe5b60ff16815260200191505060405180910390f35b3480156100e357600080fd5b50610125600480360381019080803573ffffffffffffffffffffffffffffffffffffffff169060200190929190803560ff1690602001909291905050506102c9565b005b34801561013357600080fd5b50610168600480360381019080803573ffffffffffffffffffffffffffffffffffffffff16906020019092919050505061045f565b604051808215151515815260200191505060405180910390f35b34801561018e57600080fd5b506101d0600480360381019080803573ffffffffffffffffffffffffffffffffffffffff169060200190929190803560ff1690602001909291905050506104b7565b005b3480156101de57600080fd5b50610213600480360381019080803573ffffffffffffffffffffffffffffffffffffffff1690602001909291905050506106c7565b005b6000816000808273ffffffffffffffffffffffffffffffffffffffff1673ffffffffffffffffffffffffffffffffffffffff16815260200190815260200160002060000160019054906101000a900460ff16151561027257600080fd5b6000808473ffffffffffffffffffffffffffffffffffffffff1673ffffffffffffffffffffffffffffffffffffffff16815260200190815260200160002060000160009054906101000a900460ff16915050919050565b6000818060048111156102d857fe5b73__Eidas_________________________________630fa78bf790916040518263ffffffff167c01000000000000000000000000000000000000000000000000000000000281526004018082600481111561032f57fe5b60ff16815260200191505060206040518083038186803b15801561035257600080fd5b505af4158015610366573d6000803e3d6000fd5b505050506040513d602081101561037c57600080fd5b8101908080519060200190929190505050151561039857600080fd5b836000808273ffffffffffffffffffffffffffffffffffffffff1673ffffffffffffffffffffffffffffffffffffffff16815260200190815260200160002060000160019054906101000a900460ff1615156103f357600080fd5b6000808673ffffffffffffffffffffffffffffffffffffffff1673ffffffffffffffffffffffffffffffffffffffff1681526020019081526020016000209250838360000160006101000a81548160ff0219169083600481111561045357fe5b02179055505050505050565b60008060008373ffffffffffffffffffffffffffffffffffffffff1673ffffffffffffffffffffffffffffffffffffffff16815260200190815260200160002060000160019054906101000a900460ff169050919050565b6000818060048111156104c657fe5b73__Eidas_________________________________630fa78bf790916040518263ffffffff167c01000000000000000000000000000000000000000000000000000000000281526004018082600481111561051d57fe5b60ff16815260200191505060206040518083038186803b15801561054057600080fd5b505af4158015610554573d6000803e3d6000fd5b505050506040513d602081101561056a57600080fd5b8101908080519060200190929190505050151561058657600080fd5b836000808273ffffffffffffffffffffffffffffffffffffffff1673ffffffffffffffffffffffffffffffffffffffff16815260200190815260200160002060000160019054906101000a900460ff161515156105e257600080fd5b336000808273ffffffffffffffffffffffffffffffffffffffff1673ffffffffffffffffffffffffffffffffffffffff16815260200190815260200160002060000160019054906101000a900460ff16151561063d57600080fd5b6000808773ffffffffffffffffffffffffffffffffffffffff1673ffffffffffffffffffffffffffffffffffffffff1681526020019081526020016000209350848460000160006101000a81548160ff0219169083600481111561069d57fe5b021790555060018460000160016101000a81548160ff021916908315150217905550505050505050565b6000816000808273ffffffffffffffffffffffffffffffffffffffff1673ffffffffffffffffffffffffffffffffffffffff16815260200190815260200160002060000160019054906101000a900460ff16151561072457600080fd5b6000808473ffffffffffffffffffffffffffffffffffffffff1673ffffffffffffffffffffffffffffffffffffffff168152602001908152602001600020915060008260000160006101000a81548160ff0219169083600481111561078557fe5b021790555060008260000160016101000a81548160ff0219169083151502179055505050505600a165627a7a7230582016f9d3bbe1ae5d92320ce86d9758ba7e6ec076c4b2e16a21af75a82310712b360029",
  "source": "pragma solidity 0.4.23;\n\nimport \"../libs/Eidas.sol\";\n\ncontract AlastriaIdentityIssuer {\n\n    using Eidas for Eidas.EidasLevel;\n\n    struct IdentityIssuer {\n        Eidas.EidasLevel level;\n        bool active;\n    }\n\n    mapping(address => IdentityIssuer) internal issuers;\n\n    modifier onlyIdentityIssuer(address _identityIssuer) {\n        require (issuers[_identityIssuer].active);\n        _;\n    }\n\n    modifier notIdentityIssuer(address _identityIssuer) {\n        require (!issuers[_identityIssuer].active);\n        _;\n    }\n\n    modifier alLeastLow(Eidas.EidasLevel _level) {\n        require (_level.atLeastLow());\n        _;\n    }\n\n    constructor () public {\n\n\tIdentityIssuer storage identityIssuer;\n        identityIssuer.level = Eidas.EidasLevel.High;\n        identityIssuer.active = true;\n\t    issuers[msg.sender] = identityIssuer;\n    }\n\n    function addIdentityIssuer(address _identityIssuer, Eidas.EidasLevel _level) public alLeastLow(_level) notIdentityIssuer(_identityIssuer) onlyIdentityIssuer(msg.sender) {\n        IdentityIssuer storage identityIssuer = issuers[_identityIssuer];\n        identityIssuer.level = _level;\n        identityIssuer.active = true;\n    }\n\n    function updateIdentityIssuerEidasLevel(address _identityIssuer, Eidas.EidasLevel _level) public alLeastLow(_level) onlyIdentityIssuer(_identityIssuer) {\n        IdentityIssuer storage identityIssuer = issuers[_identityIssuer];\n        identityIssuer.level = _level;\n    }\n\n    function deleteIdentityIssuer(address _identityIssuer) public onlyIdentityIssuer(_identityIssuer) {\n        IdentityIssuer storage identityIssuer = issuers[_identityIssuer];\n        identityIssuer.level = Eidas.EidasLevel.Null;\n        identityIssuer.active = false;\n    }\n\n    function getEidasLevel(address _identityIssuer) public constant onlyIdentityIssuer(_identityIssuer) returns (Eidas.EidasLevel) {\n        return issuers[_identityIssuer].level;\n    }\n    \n     function isIdentityIssuer(address _identityIssuer) public constant returns (bool) {\n        return issuers[_identityIssuer].active;\n    }\n\n}\n",
  "sourcePath": "/Users/santiago/Documents/Teleco/Blockchain/Proyectos/5 - AlastriaIdentity/Pruebas_Quorum/Trabajo/monitor/AlaIdMonitor/contracts/identityManager/AlastriaIdentityIssuer.sol",
  "compiler": {
    "name": "solc",
    "version": "0.4.23+commit.124ca40d.Emscripten.clang"
  },
  "schemaVersion": "3.4.1",
  "updatedAt": "2021-05-26T14:23:06.065Z",
  "devdoc": {
    "methods": {}
  },
  "userdoc": {
    "methods": {}
  }
}