{
  "contractName": "AlastriaPresentationRegistry",
  "abi": [
    {
      "constant": true,
      "inputs": [
        {
          "name": "",
          "type": "address"
        },
        {
          "name": "",
          "type": "bytes32"
        }
      ],
      "name": "subjectPresentationRegistry",
      "outputs": [
        {
          "name": "exists",
          "type": "bool"
        },
        {
          "name": "status",
          "type": "uint8"
        },
        {
          "name": "URI",
          "type": "string"
        }
      ],
      "payable": false,
      "stateMutability": "view",
      "type": "function"
    },
    {
      "constant": true,
      "inputs": [],
      "name": "version",
      "outputs": [
        {
          "name": "",
          "type": "int256"
        }
      ],
      "payable": false,
      "stateMutability": "view",
      "type": "function"
    },
    {
      "constant": true,
      "inputs": [],
      "name": "previousPublishedVersion",
      "outputs": [
        {
          "name": "",
          "type": "address"
        }
      ],
      "payable": false,
      "stateMutability": "view",
      "type": "function"
    },
    {
      "constant": true,
      "inputs": [
        {
          "name": "",
          "type": "address"
        },
        {
          "name": "",
          "type": "uint256"
        }
      ],
      "name": "subjectPresentationListRegistry",
      "outputs": [
        {
          "name": "",
          "type": "bytes32"
        }
      ],
      "payable": false,
      "stateMutability": "view",
      "type": "function"
    },
    {
      "inputs": [
        {
          "name": "_previousPublishedVersion",
          "type": "address"
        }
      ],
      "payable": false,
      "stateMutability": "nonpayable",
      "type": "constructor"
    },
    {
      "anonymous": false,
      "inputs": [
        {
          "indexed": false,
          "name": "hash",
          "type": "bytes32"
        },
        {
          "indexed": false,
          "name": "status",
          "type": "uint8"
        }
      ],
      "name": "PresentationUpdated",
      "type": "event"
    },
    {
      "constant": false,
      "inputs": [
        {
          "name": "subjectPresentationHash",
          "type": "bytes32"
        },
        {
          "name": "URI",
          "type": "string"
        }
      ],
      "name": "addSubjectPresentation",
      "outputs": [],
      "payable": false,
      "stateMutability": "nonpayable",
      "type": "function"
    },
    {
      "constant": false,
      "inputs": [
        {
          "name": "subjectPresentationHash",
          "type": "bytes32"
        },
        {
          "name": "status",
          "type": "uint8"
        }
      ],
      "name": "updateSubjectPresentation",
      "outputs": [],
      "payable": false,
      "stateMutability": "nonpayable",
      "type": "function"
    },
    {
      "constant": true,
      "inputs": [
        {
          "name": "subject",
          "type": "address"
        },
        {
          "name": "subjectPresentationHash",
          "type": "bytes32"
        }
      ],
      "name": "getSubjectPresentationStatus",
      "outputs": [
        {
          "name": "exists",
          "type": "bool"
        },
        {
          "name": "status",
          "type": "uint8"
        }
      ],
      "payable": false,
      "stateMutability": "view",
      "type": "function"
    },
    {
      "constant": true,
      "inputs": [
        {
          "name": "subject",
          "type": "address"
        }
      ],
      "name": "getSubjectPresentationList",
      "outputs": [
        {
          "name": "",
          "type": "uint256"
        },
        {
          "name": "",
          "type": "bytes32[]"
        }
      ],
      "payable": false,
      "stateMutability": "view",
      "type": "function"
    },
    {
      "constant": false,
      "inputs": [
        {
          "name": "receiverPresentationHash",
          "type": "bytes32"
        },
        {
          "name": "status",
          "type": "uint8"
        }
      ],
      "name": "updateReceiverPresentation",
      "outputs": [],
      "payable": false,
      "stateMutability": "nonpayable",
      "type": "function"
    },
    {
      "constant": true,
      "inputs": [
        {
          "name": "receiver",
          "type": "address"
        },
        {
          "name": "receiverPresentationHash",
          "type": "bytes32"
        }
      ],
      "name": "getReceiverPresentationStatus",
      "outputs": [
        {
          "name": "exists",
          "type": "bool"
        },
        {
          "name": "status",
          "type": "uint8"
        }
      ],
      "payable": false,
      "stateMutability": "view",
      "type": "function"
    },
    {
      "constant": true,
      "inputs": [
        {
          "name": "subjectStatus",
          "type": "uint8"
        },
        {
          "name": "receiverStatus",
          "type": "uint8"
        }
      ],
      "name": "getPresentationStatus",
      "outputs": [
        {
          "name": "",
          "type": "uint8"
        }
      ],
      "payable": false,
      "stateMutability": "pure",
      "type": "function"
    }
  ],
  "bytecode": "0x608060405260806040519081016040528060011515151581526020016000151515158152602001600115151515815260200160001515151581525060029060046200004c92919062000132565b5060806040519081016040528060001515151581526020016001151515158152602001600015151515815260200160011515151581525060039060046200009592919062000132565b506000600460006101000a81548160ff021916908315150217905550348015620000be57600080fd5b506040516020806200124983398101806040528101908080519060200190929190505050600360008190555080600160006101000a81548173ffffffffffffffffffffffffffffffffffffffff021916908373ffffffffffffffffffffffffffffffffffffffff1602179055505062000205565b826004601f01602090048101928215620001bf5791602002820160005b838211156200018e57835183826101000a81548160ff02191690831515021790555092602001926001016020816000010492830192600103026200014f565b8015620001bd5782816101000a81549060ff02191690556001016020816000010492830192600103026200018e565b505b509050620001ce9190620001d2565b5090565b6200020291905b80821115620001fe57600081816101000a81549060ff021916905550600101620001d9565b5090565b90565b61103480620002156000396000f3006080604052600436106100af576000357c0100000000000000000000000000000000000000000000000000000000900463ffffffff168063034f8408146100b45780631e54e325146101135780633000dc39146101fd5780634e3a5de51461023b5780635205080f146102b257806354fd4d50146103305780636104464f1461035b5780639373014a146103b2578063c00dcd0e14610430578063e4734593146104cf578063e64af93814610538575b600080fd5b3480156100c057600080fd5b506100ef600480360381019080803560ff169060200190929190803560ff169060200190929190505050610576565b604051808260038111156100ff57fe5b60ff16815260200191505060405180910390f35b34801561011f57600080fd5b50610162600480360381019080803573ffffffffffffffffffffffffffffffffffffffff169060200190929190803560001916906020019092919050505061063d565b604051808415151515815260200183600381111561017c57fe5b60ff16815260200180602001828103825283818151815260200191508051906020019080838360005b838110156101c05780820151818401526020810190506101a5565b50505050905090810190601f1680156101ed5780820380516001836020036101000a031916815260200191505b5094505050505060405180910390f35b34801561020957600080fd5b506102396004803603810190808035600019169060200190929190803560ff169060200190929190505050610726565b005b34801561024757600080fd5b506102b06004803603810190808035600019169060200190929190803590602001908201803590602001908080601f01602080910402602001604051908101604052809392919081815260200183838082843782019150505050505091929192905050506108ed565b005b3480156102be57600080fd5b50610301600480360381019080803573ffffffffffffffffffffffffffffffffffffffff1690602001909291908035600019169060200190929190505050610ac1565b604051808315151515815260200182600381111561031b57fe5b60ff1681526020019250505060405180910390f35b34801561033c57600080fd5b50610345610b8e565b6040518082815260200191505060405180910390f35b34801561036757600080fd5b50610370610b94565b604051808273ffffffffffffffffffffffffffffffffffffffff1673ffffffffffffffffffffffffffffffffffffffff16815260200191505060405180910390f35b3480156103be57600080fd5b50610401600480360381019080803573ffffffffffffffffffffffffffffffffffffffff1690602001909291908035600019169060200190929190505050610bba565b604051808315151515815260200182600381111561041b57fe5b60ff1681526020019250505060405180910390f35b34801561043c57600080fd5b50610471600480360381019080803573ffffffffffffffffffffffffffffffffffffffff169060200190929190505050610c87565b6040518083815260200180602001828103825283818151815260200191508051906020019060200280838360005b838110156104ba57808201518184015260208101905061049f565b50505050905001935050505060405180910390f35b3480156104db57600080fd5b5061051a600480360381019080803573ffffffffffffffffffffffffffffffffffffffff16906020019092919080359060200190929190505050610d6c565b60405180826000191660001916815260200191505060405180910390f35b34801561054457600080fd5b506105746004803603810190808035600019169060200190929190803560ff169060200190929190505050610d9c565b005b6000826000600381111561058657fe5b81600381111561059257fe5b101580156105b657506003808111156105a757fe5b8160038111156105b357fe5b11155b15156105c157600080fd5b82600060038111156105cf57fe5b8160038111156105db57fe5b101580156105ff57506003808111156105f057fe5b8160038111156105fc57fe5b11155b151561060a57600080fd5b83600381111561061657fe5b85600381111561062257fe5b10151561063157849250610635565b8392505b505092915050565b6005602052816000526040600020602052806000526040600020600091509150508060000160009054906101000a900460ff16908060000160019054906101000a900460ff1690806001018054600181600116156101000203166002900480601f01602080910402602001604051908101604052809291908181526020018280546001816001161561010002031660029004801561071c5780601f106106f15761010080835404028352916020019161071c565b820191906000526020600020905b8154815290600101906020018083116106ff57829003601f168201915b5050505050905083565b6000816000600381111561073657fe5b81600381111561074257fe5b10158015610766575060038081111561075757fe5b81600381111561076357fe5b11155b151561077157600080fd5b600760003373ffffffffffffffffffffffffffffffffffffffff1673ffffffffffffffffffffffffffffffffffffffff168152602001908152602001600020600085600019166000191681526020019081526020016000209150600460009054906101000a900460ff1615801561080f57508160000160019054906101000a900460ff16600381111561080057fe5b83600381111561080c57fe5b11155b15610819576108e7565b600383600381111561082757fe5b60048110151561083357fe5b602091828204019190069054906101000a900460ff16156108e65760018260000160006101000a81548160ff021916908315150217905550828260000160016101000a81548160ff0219169083600381111561088b57fe5b02179055507f52035ff46a15e119b23cfbf756f83f68ee8740523a40b78f621fdd44f091fb3884846040518083600019166000191681526020018260038111156108d157fe5b60ff1681526020019250505060405180910390a15b5b50505050565b600560003373ffffffffffffffffffffffffffffffffffffffff1673ffffffffffffffffffffffffffffffffffffffff1681526020019081526020016000206000836000191660001916815260200190815260200160002060000160009054906101000a900460ff1615151561096257600080fd5b6060604051908101604052806001151581526020016000600381111561098457fe5b815260200182815250600560003373ffffffffffffffffffffffffffffffffffffffff1673ffffffffffffffffffffffffffffffffffffffff1681526020019081526020016000206000846000191660001916815260200190815260200160002060008201518160000160006101000a81548160ff02191690831515021790555060208201518160000160016101000a81548160ff02191690836003811115610a2957fe5b02179055506040820151816001019080519060200190610a4a929190610f63565b50905050600660003373ffffffffffffffffffffffffffffffffffffffff1673ffffffffffffffffffffffffffffffffffffffff1681526020019081526020016000208290806001815401808255809150509060018203906000526020600020016000909192909190915090600019169055505050565b600080600084600073ffffffffffffffffffffffffffffffffffffffff168173ffffffffffffffffffffffffffffffffffffffff1614151515610b0357600080fd5b600560008773ffffffffffffffffffffffffffffffffffffffff1673ffffffffffffffffffffffffffffffffffffffff1681526020019081526020016000206000866000191660001916815260200190815260200160002091508160000160009054906101000a900460ff168260000160019054906101000a900460ff169350935050509250929050565b60005481565b600160009054906101000a900473ffffffffffffffffffffffffffffffffffffffff1681565b600080600084600073ffffffffffffffffffffffffffffffffffffffff168173ffffffffffffffffffffffffffffffffffffffff1614151515610bfc57600080fd5b600760008773ffffffffffffffffffffffffffffffffffffffff1673ffffffffffffffffffffffffffffffffffffffff1681526020019081526020016000206000866000191660001916815260200190815260200160002091508160000160009054906101000a900460ff168260000160019054906101000a900460ff169350935050509250929050565b60006060600660008473ffffffffffffffffffffffffffffffffffffffff1673ffffffffffffffffffffffffffffffffffffffff16815260200190815260200160002080549050600660008573ffffffffffffffffffffffffffffffffffffffff1673ffffffffffffffffffffffffffffffffffffffff16815260200190815260200160002080805480602002602001604051908101604052809291908181526020018280548015610d5c57602002820191906000526020600020905b81546000191681526020019060010190808311610d44575b5050505050905091509150915091565b600660205281600052604060002081815481101515610d8757fe5b90600052602060002001600091509150505481565b60008160006003811115610dac57fe5b816003811115610db857fe5b10158015610ddc5750600380811115610dcd57fe5b816003811115610dd957fe5b11155b1515610de757600080fd5b600560003373ffffffffffffffffffffffffffffffffffffffff1673ffffffffffffffffffffffffffffffffffffffff1681526020019081526020016000206000856000191660001916815260200190815260200160002091508160000160009054906101000a900460ff161515610e5e57610f5d565b600460009054906101000a900460ff16158015610ea257508160000160019054906101000a900460ff166003811115610e9357fe5b836003811115610e9f57fe5b11155b15610eac57610f5d565b6002836003811115610eba57fe5b600481101515610ec657fe5b602091828204019190069054906101000a900460ff1615610f5c57828260000160016101000a81548160ff02191690836003811115610f0157fe5b02179055507f52035ff46a15e119b23cfbf756f83f68ee8740523a40b78f621fdd44f091fb388484604051808360001916600019168152602001826003811115610f4757fe5b60ff1681526020019250505060405180910390a15b5b50505050565b828054600181600116156101000203166002900490600052602060002090601f016020900481019282601f10610fa457805160ff1916838001178555610fd2565b82800160010185558215610fd2579182015b82811115610fd1578251825591602001919060010190610fb6565b5b509050610fdf9190610fe3565b5090565b61100591905b80821115611001576000816000905550600101610fe9565b5090565b905600a165627a7a7230582058eceaa40912b66a2aa5c472a995e5e8e97580dbbee80ff0718a9769fd16b6160029",
  "source": "pragma solidity 0.4.23;\n\n\ncontract AlastriaPresentationRegistry {\n\n    // Subject Presentation actions are registered under subjectPresentationHash = hash(Presentation)\n    // in a (subject, subjectPresentationHash) mapping\n    // Receiver (ussually a Service Provider) Presentation Actions are registered\n    // under receiverPresentationHash = hash(Presentations + PresentationSignature) in a (receiver, receiverPresentationHash) mapping\n    // A List of Subject Presentation Hashes is gathered in a (subject) mapping\n    // To Review: Subject Presentations  could be iterated instead of returned as an array\n\n\n    // Variables\n    int public version;\n    address public previousPublishedVersion;\n\n\n    // Status definition, should be moved to a Library.\n    enum Status {Valid, Received, AskDeletion, DeletionConfirmation}\n    Status constant STATUS_FIRST = Status.Valid;\n    Status constant STATUS_LAST = Status.DeletionConfirmation;\n    int constant STATUS_SIZE = 4;\n    bool[STATUS_SIZE] subjectAllowed = [\n        true,\n        false,\n        true,\n        false\n    ];\n    bool[STATUS_SIZE] receiverAllowed = [\n        false,\n        true,\n        false,\n        true\n    ];\n    bool backTransitionsAllowed = false;\n\n\n    // Presentation: Initially set to Valid\n    // Updates as allowed in *allow arrays\n    struct SubjectPresentation {\n        bool exists;\n        Status status;\n        string URI;\n    }\n    // Mapping subject, subjectPresentationHash (Complete JSON Presentation)\n    mapping(address => mapping(bytes32 => SubjectPresentation)) public subjectPresentationRegistry;\n    mapping(address => bytes32[]) public subjectPresentationListRegistry;\n\n    struct ReceiverPresentation {\n        bool exists;\n        Status status;\n    }\n    // Mapping receiver, receiverPresentationHash (Complete JSON Presentation + PresentationSignature)\n    mapping(address => mapping(bytes32 => ReceiverPresentation)) private receiverPresentationRegistry;\n\n\n    // Events. Just for changes, not for initial set\n    event PresentationUpdated (bytes32 hash, Status status);\n\n\n    //Modifiers\n    modifier validAddress(address addr) {//protects against some weird attacks\n        require(addr != address(0));\n        _;\n    }\n\n    modifier validStatus (Status status) { // solidity currently check on use not at function call\n        require (status >= STATUS_FIRST && status <= STATUS_LAST);\n        _;\n    }\n\n    // Functions\n    constructor (address _previousPublishedVersion) public {\n        version = 3;\n        previousPublishedVersion = _previousPublishedVersion;\n    }\n\n    //\n    //Subject functions\n    function addSubjectPresentation(bytes32 subjectPresentationHash, string URI) public {\n        require(!subjectPresentationRegistry[msg.sender][subjectPresentationHash].exists);\n        subjectPresentationRegistry[msg.sender][subjectPresentationHash] = SubjectPresentation(true, Status.Valid, URI);\n        subjectPresentationListRegistry[msg.sender].push(subjectPresentationHash);\n    }\n\n    function updateSubjectPresentation(bytes32 subjectPresentationHash, Status status) public validStatus(status) {\n        SubjectPresentation storage value = subjectPresentationRegistry[msg.sender][subjectPresentationHash];\n        // Check existence and backtransitions, should be requires?\n        if (!value.exists) {\n            return;\n        }\n        if (!backTransitionsAllowed && status <= value.status) {\n            return;\n        }\n        if (subjectAllowed[uint(status)]) {\n            value.status = status;\n            emit PresentationUpdated(subjectPresentationHash, status);\n        }\n    }\n\n    // If the Presentation does not exists the return is a void Presentation\n    // If we want a log, should we add an event?\n    function getSubjectPresentationStatus(address subject, bytes32 subjectPresentationHash) view public validAddress(subject) returns (bool exists, Status status) {\n        SubjectPresentation storage value = subjectPresentationRegistry[subject][subjectPresentationHash];\n        return (value.exists, value.status);\n    }\n\n    function getSubjectPresentationList(address subject) public view returns (uint, bytes32[]) {\n        return (subjectPresentationListRegistry[subject].length, subjectPresentationListRegistry[subject]);\n    }\n\n    //\n    //Receiver functions\n    function updateReceiverPresentation(bytes32 receiverPresentationHash, Status status) public validStatus(status) {\n        ReceiverPresentation storage value = receiverPresentationRegistry[msg.sender][receiverPresentationHash];\n        // No previous existence required. Check backward transition\n        if (!backTransitionsAllowed && status <= value.status) {\n            return;\n        }\n        if (receiverAllowed[uint(status)]) {\n            value.exists = true;\n            value.status = status;\n            emit PresentationUpdated(receiverPresentationHash, status);\n        }\n    }\n\n    // If the Presentation does not exists the return is a void Presentation\n    // If we want a log, should we add an event?\n    function getReceiverPresentationStatus(address receiver, bytes32 receiverPresentationHash) view public validAddress(receiver) returns (bool exists, Status status) {\n        ReceiverPresentation storage value = receiverPresentationRegistry[receiver][receiverPresentationHash];\n        return (value.exists, value.status);\n    }\n\n    // Utility function\n    // Defining three status functions avoids linking the Subject to the Receiver or the corresponding hashes\n    function getPresentationStatus(Status subjectStatus, Status receiverStatus) pure public validStatus(subjectStatus) validStatus(receiverStatus) returns (Status){\n        if (subjectStatus >= receiverStatus) {\n            return subjectStatus;\n        } else {\n            return receiverStatus;\n        }\n    }\n}",
  "sourcePath": "/Users/santiago/Documents/Teleco/Blockchain/Proyectos/5 - AlastriaIdentity/Pruebas_Quorum/Trabajo/monitor/AlaIdMonitor/contracts/registry/AlastriaPresentationRegistry.sol",
  "compiler": {
    "name": "solc",
    "version": "0.4.23+commit.124ca40d.Emscripten.clang"
  },
  "schemaVersion": "3.4.1",
  "updatedAt": "2021-05-26T14:23:06.075Z",
  "devdoc": {
    "methods": {}
  },
  "userdoc": {
    "methods": {}
  }
}