{
  "contractName": "AlastriaIdentityEntity",
  "abi": [
    {
      "inputs": [],
      "payable": false,
      "stateMutability": "nonpayable",
      "type": "constructor"
    },
    {
      "constant": false,
      "inputs": [
        {
          "name": "_addressEntity",
          "type": "address"
        },
        {
          "name": "_name",
          "type": "string"
        },
        {
          "name": "_cif",
          "type": "string"
        },
        {
          "name": "_url_logo",
          "type": "string"
        },
        {
          "name": "_url_createAID",
          "type": "string"
        },
        {
          "name": "_url_AOA",
          "type": "string"
        },
        {
          "name": "_active",
          "type": "bool"
        }
      ],
      "name": "addEntity",
      "outputs": [],
      "payable": false,
      "stateMutability": "nonpayable",
      "type": "function"
    },
    {
      "constant": false,
      "inputs": [
        {
          "name": "_addressEntity",
          "type": "address"
        },
        {
          "name": "_name",
          "type": "string"
        }
      ],
      "name": "setNameEntity",
      "outputs": [],
      "payable": false,
      "stateMutability": "nonpayable",
      "type": "function"
    },
    {
      "constant": false,
      "inputs": [
        {
          "name": "_addressEntity",
          "type": "address"
        },
        {
          "name": "_cif",
          "type": "string"
        }
      ],
      "name": "setCifEntity",
      "outputs": [],
      "payable": false,
      "stateMutability": "nonpayable",
      "type": "function"
    },
    {
      "constant": false,
      "inputs": [
        {
          "name": "_addressEntity",
          "type": "address"
        },
        {
          "name": "_url_logo",
          "type": "string"
        }
      ],
      "name": "setUrlLogo",
      "outputs": [],
      "payable": false,
      "stateMutability": "nonpayable",
      "type": "function"
    },
    {
      "constant": false,
      "inputs": [
        {
          "name": "_addressEntity",
          "type": "address"
        },
        {
          "name": "_url_createAID",
          "type": "string"
        }
      ],
      "name": "setUrlCreateAID",
      "outputs": [],
      "payable": false,
      "stateMutability": "nonpayable",
      "type": "function"
    },
    {
      "constant": false,
      "inputs": [
        {
          "name": "_addressEntity",
          "type": "address"
        },
        {
          "name": "_url_AOA",
          "type": "string"
        }
      ],
      "name": "setUrlAOA",
      "outputs": [],
      "payable": false,
      "stateMutability": "nonpayable",
      "type": "function"
    },
    {
      "constant": true,
      "inputs": [
        {
          "name": "_addressEntity",
          "type": "address"
        }
      ],
      "name": "getEntity",
      "outputs": [
        {
          "name": "_name",
          "type": "string"
        },
        {
          "name": "_cif",
          "type": "string"
        },
        {
          "name": "_url_logo",
          "type": "string"
        },
        {
          "name": "_url_createAID",
          "type": "string"
        },
        {
          "name": "_url_AOA",
          "type": "string"
        },
        {
          "name": "_active",
          "type": "bool"
        }
      ],
      "payable": false,
      "stateMutability": "view",
      "type": "function"
    },
    {
      "constant": true,
      "inputs": [],
      "name": "entitiesList",
      "outputs": [
        {
          "name": "",
          "type": "address[]"
        }
      ],
      "payable": false,
      "stateMutability": "view",
      "type": "function"
    }
  ],
  "bytecode": "0x60806040523480156200001157600080fd5b50600060018160050160006101000a81548160ff021916908315150217905550806000803373ffffffffffffffffffffffffffffffffffffffff1673ffffffffffffffffffffffffffffffffffffffff168152602001908152602001600020600082018160000190805460018160011615610100020316600290046200009992919062000179565b5060018201816001019080546001816001161561010002031660029004620000c392919062000179565b5060028201816002019080546001816001161561010002031660029004620000ed92919062000179565b50600382018160030190805460018160011615610100020316600290046200011792919062000179565b50600482018160040190805460018160011615610100020316600290046200014192919062000179565b506005820160009054906101000a900460ff168160050160006101000a81548160ff021916908315150217905550905050506200022f565b828054600181600116156101000203166002900490600052602060002090601f016020900481019282601f10620001b45780548555620001f4565b82800160010185558215620001f457600052602060002091601f016020900482015b82811115620001f3578254825591600101919060010190620001d6565b5b50905062000203919062000207565b5090565b6200022c91905b80821115620002285760008160009055506001016200020e565b5090565b90565b611509806200023f6000396000f30060806040526004361061008e576000357c0100000000000000000000000000000000000000000000000000000000900463ffffffff1680630ff72ef2146100935780631e5f6f011461011c5780634b7a1859146101a55780636e7a216b1461022e57806375894e8c1461029a5780638e672cf714610511578063c4c023331461059a578063eb5c426c14610747575b600080fd5b34801561009f57600080fd5b5061011a600480360381019080803573ffffffffffffffffffffffffffffffffffffffff169060200190929190803590602001908201803590602001908080601f01602080910402602001604051908101604052809392919081815260200183838082843782019150505050505091929192905050506107d0565b005b34801561012857600080fd5b506101a3600480360381019080803573ffffffffffffffffffffffffffffffffffffffff169060200190929190803590602001908201803590602001908080601f016020809104026020016040519081016040528093929190818152602001838380828437820191505050505050919291929050505061088d565b005b3480156101b157600080fd5b5061022c600480360381019080803573ffffffffffffffffffffffffffffffffffffffff169060200190929190803590602001908201803590602001908080601f016020809104026020016040519081016040528093929190818152602001838380828437820191505050505050919291929050505061094a565b005b34801561023a57600080fd5b50610243610a07565b6040518080602001828103825283818151815260200191508051906020019060200280838360005b8381101561028657808201518184015260208101905061026b565b505050509050019250505060405180910390f35b3480156102a657600080fd5b506102db600480360381019080803573ffffffffffffffffffffffffffffffffffffffff169060200190929190505050610a95565b6040518080602001806020018060200180602001806020018715151515815260200186810386528c818151815260200191508051906020019080838360005b8381101561033557808201518184015260208101905061031a565b50505050905090810190601f1680156103625780820380516001836020036101000a031916815260200191505b5086810385528b818151815260200191508051906020019080838360005b8381101561039b578082015181840152602081019050610380565b50505050905090810190601f1680156103c85780820380516001836020036101000a031916815260200191505b5086810384528a818151815260200191508051906020019080838360005b838110156104015780820151818401526020810190506103e6565b50505050905090810190601f16801561042e5780820380516001836020036101000a031916815260200191505b50868103835289818151815260200191508051906020019080838360005b8381101561046757808201518184015260208101905061044c565b50505050905090810190601f1680156104945780820380516001836020036101000a031916815260200191505b50868103825288818151815260200191508051906020019080838360005b838110156104cd5780820151818401526020810190506104b2565b50505050905090810190601f1680156104fa5780820380516001836020036101000a031916815260200191505b509b50505050505050505050505060405180910390f35b34801561051d57600080fd5b50610598600480360381019080803573ffffffffffffffffffffffffffffffffffffffff169060200190929190803590602001908201803590602001908080601f0160208091040260200160405190810160405280939291908181526020018383808284378201915050505050509192919290505050610f45565b005b3480156105a657600080fd5b50610745600480360381019080803573ffffffffffffffffffffffffffffffffffffffff169060200190929190803590602001908201803590602001908080601f0160208091040260200160405190810160405280939291908181526020018383808284378201915050505050509192919290803590602001908201803590602001908080601f0160208091040260200160405190810160405280939291908181526020018383808284378201915050505050509192919290803590602001908201803590602001908080601f0160208091040260200160405190810160405280939291908181526020018383808284378201915050505050509192919290803590602001908201803590602001908080601f0160208091040260200160405190810160405280939291908181526020018383808284378201915050505050509192919290803590602001908201803590602001908080601f0160208091040260200160405190810160405280939291908181526020018383808284378201915050505050509192919290803515159060200190929190505050611002565b005b34801561075357600080fd5b506107ce600480360381019080803573ffffffffffffffffffffffffffffffffffffffff169060200190929190803590602001908201803590602001908080601f016020809104026020016040519081016040528093929190818152602001838380828437820191505050505050919291929050505061137b565b005b81600115156000808373ffffffffffffffffffffffffffffffffffffffff1673ffffffffffffffffffffffffffffffffffffffff16815260200190815260200160002060050160009054906101000a900460ff16151514151561083257600080fd5b816000808573ffffffffffffffffffffffffffffffffffffffff1673ffffffffffffffffffffffffffffffffffffffff1681526020019081526020016000206002019080519060200190610887929190611438565b50505050565b81600115156000808373ffffffffffffffffffffffffffffffffffffffff1673ffffffffffffffffffffffffffffffffffffffff16815260200190815260200160002060050160009054906101000a900460ff1615151415156108ef57600080fd5b816000808573ffffffffffffffffffffffffffffffffffffffff1673ffffffffffffffffffffffffffffffffffffffff1681526020019081526020016000206001019080519060200190610944929190611438565b50505050565b81600115156000808373ffffffffffffffffffffffffffffffffffffffff1673ffffffffffffffffffffffffffffffffffffffff16815260200190815260200160002060050160009054906101000a900460ff1615151415156109ac57600080fd5b816000808573ffffffffffffffffffffffffffffffffffffffff1673ffffffffffffffffffffffffffffffffffffffff1681526020019081526020016000206003019080519060200190610a01929190611438565b50505050565b60606001805480602002602001604051908101604052809291908181526020018280548015610a8b57602002820191906000526020600020905b8160009054906101000a900473ffffffffffffffffffffffffffffffffffffffff1673ffffffffffffffffffffffffffffffffffffffff1681526020019060010190808311610a41575b5050505050905090565b606080606080606060008060008873ffffffffffffffffffffffffffffffffffffffff1673ffffffffffffffffffffffffffffffffffffffff1681526020019081526020016000206000018054600181600116156101000203166002900480601f016020809104026020016040519081016040528092919081815260200182805460018160011615610100020316600290048015610b745780601f10610b4957610100808354040283529160200191610b74565b820191906000526020600020905b815481529060010190602001808311610b5757829003601f168201915b505050505095506000808873ffffffffffffffffffffffffffffffffffffffff1673ffffffffffffffffffffffffffffffffffffffff1681526020019081526020016000206001018054600181600116156101000203166002900480601f016020809104026020016040519081016040528092919081815260200182805460018160011615610100020316600290048015610c505780601f10610c2557610100808354040283529160200191610c50565b820191906000526020600020905b815481529060010190602001808311610c3357829003601f168201915b505050505094506000808873ffffffffffffffffffffffffffffffffffffffff1673ffffffffffffffffffffffffffffffffffffffff1681526020019081526020016000206002018054600181600116156101000203166002900480601f016020809104026020016040519081016040528092919081815260200182805460018160011615610100020316600290048015610d2c5780601f10610d0157610100808354040283529160200191610d2c565b820191906000526020600020905b815481529060010190602001808311610d0f57829003601f168201915b505050505093506000808873ffffffffffffffffffffffffffffffffffffffff1673ffffffffffffffffffffffffffffffffffffffff1681526020019081526020016000206003018054600181600116156101000203166002900480601f016020809104026020016040519081016040528092919081815260200182805460018160011615610100020316600290048015610e085780601f10610ddd57610100808354040283529160200191610e08565b820191906000526020600020905b815481529060010190602001808311610deb57829003601f168201915b505050505092506000808873ffffffffffffffffffffffffffffffffffffffff1673ffffffffffffffffffffffffffffffffffffffff1681526020019081526020016000206004018054600181600116156101000203166002900480601f016020809104026020016040519081016040528092919081815260200182805460018160011615610100020316600290048015610ee45780601f10610eb957610100808354040283529160200191610ee4565b820191906000526020600020905b815481529060010190602001808311610ec757829003601f168201915b505050505091506000808873ffffffffffffffffffffffffffffffffffffffff1673ffffffffffffffffffffffffffffffffffffffff16815260200190815260200160002060050160009054906101000a900460ff16905091939550919395565b81600115156000808373ffffffffffffffffffffffffffffffffffffffff1673ffffffffffffffffffffffffffffffffffffffff16815260200190815260200160002060050160009054906101000a900460ff161515141515610fa757600080fd5b816000808573ffffffffffffffffffffffffffffffffffffffff1673ffffffffffffffffffffffffffffffffffffffff1681526020019081526020016000206004019080519060200190610ffc929190611438565b50505050565b6000876000808273ffffffffffffffffffffffffffffffffffffffff1673ffffffffffffffffffffffffffffffffffffffff16815260200190815260200160002060050160009054906101000a900460ff1615151561106057600080fd5b33600115156000808373ffffffffffffffffffffffffffffffffffffffff1673ffffffffffffffffffffffffffffffffffffffff16815260200190815260200160002060050160009054906101000a900460ff1615151415156110c257600080fd5b6000808b73ffffffffffffffffffffffffffffffffffffffff1673ffffffffffffffffffffffffffffffffffffffff168152602001908152602001600020925060018a90806001815401808255809150509060018203906000526020600020016000909192909190916101000a81548173ffffffffffffffffffffffffffffffffffffffff021916908373ffffffffffffffffffffffffffffffffffffffff16021790555050886000808c73ffffffffffffffffffffffffffffffffffffffff1673ffffffffffffffffffffffffffffffffffffffff16815260200190815260200160002060000190805190602001906111bd929190611438565b50876000808c73ffffffffffffffffffffffffffffffffffffffff1673ffffffffffffffffffffffffffffffffffffffff1681526020019081526020016000206001019080519060200190611213929190611438565b50866000808c73ffffffffffffffffffffffffffffffffffffffff1673ffffffffffffffffffffffffffffffffffffffff1681526020019081526020016000206002019080519060200190611269929190611438565b50856000808c73ffffffffffffffffffffffffffffffffffffffff1673ffffffffffffffffffffffffffffffffffffffff16815260200190815260200160002060030190805190602001906112bf929190611438565b50846000808c73ffffffffffffffffffffffffffffffffffffffff1673ffffffffffffffffffffffffffffffffffffffff1681526020019081526020016000206004019080519060200190611315929190611438565b50836000808c73ffffffffffffffffffffffffffffffffffffffff1673ffffffffffffffffffffffffffffffffffffffff16815260200190815260200160002060050160006101000a81548160ff02191690831515021790555050505050505050505050565b81600115156000808373ffffffffffffffffffffffffffffffffffffffff1673ffffffffffffffffffffffffffffffffffffffff16815260200190815260200160002060050160009054906101000a900460ff1615151415156113dd57600080fd5b816000808573ffffffffffffffffffffffffffffffffffffffff1673ffffffffffffffffffffffffffffffffffffffff1681526020019081526020016000206000019080519060200190611432929190611438565b50505050565b828054600181600116156101000203166002900490600052602060002090601f016020900481019282601f1061147957805160ff19168380011785556114a7565b828001600101855582156114a7579182015b828111156114a657825182559160200191906001019061148b565b5b5090506114b491906114b8565b5090565b6114da91905b808211156114d65760008160009055506001016114be565b5090565b905600a165627a7a723058204587f27de8d0367f5ec46caf87eadbb50a86ea06863c2624b89f7eb99c36408d0029",
  "source": "pragma solidity 0.4.23;\n\nimport \"../libs/Eidas.sol\";\n\ncontract AlastriaIdentityEntity {\n\n    using Eidas for Eidas.EidasLevel;\n\n    struct IdentityEntity {  \n        string name;\n        string cif;\n        string url_logo;\n        string url_createAID;\n        string url_AOA;\n        bool active;\n    }\n\n    mapping(address => IdentityEntity) internal entities;\n    address[] listEntities;\n\n    modifier onlyIdentityEntity(address _identityEntity) {\n        require (entities[_identityEntity].active == true);\n        _;\n    }\n    \n     modifier notIdentityEntity(address _identityEntity) {\n        require (!entities[_identityEntity].active);\n        _;\n    }\n   \n    constructor() public {\n        IdentityEntity storage identityEntity;\n        identityEntity.active = true;\n\t    entities[msg.sender] = identityEntity;\n    }\n    \n\n    /**\n    * @dev function that allows you to add a entity to the entities mapping\n    * @param _addressEntity the address that identify the entity in the blockchain\n    * @param _name the name of the entity\n    * @param _cif the cif of the entity\n    * @param _url_logo the url that contains the logo of the entity\n    * @param _url_createAID the url that contains the alastria ID of the entity\n    * @param _url_AOA the url that contains the AOA of the entity\n    * @param _active a flag that shows if a entity is active or not\n    */ \n    function addEntity(address _addressEntity, string _name, string _cif, string _url_logo, string _url_createAID, string _url_AOA, bool _active) public notIdentityEntity(_addressEntity) onlyIdentityEntity(msg.sender) {\n         IdentityEntity storage identityEntity = entities[_addressEntity];\n         listEntities.push(_addressEntity);\n         entities[_addressEntity].name = _name;\n         entities[_addressEntity].cif = _cif;\n         entities[_addressEntity].url_logo = _url_logo;\n         entities[_addressEntity].url_createAID = _url_createAID;\n         entities[_addressEntity].url_AOA = _url_AOA;\n         entities[_addressEntity].active = _active;\n    }\n    \n    /**\n    * @dev function that allows you to change the name of the entity\n    * @param _addressEntity the address that identify the entity in the blockchain\n    * @param _name the new name of the entity\n    */\n    function setNameEntity(address _addressEntity, string _name) public onlyIdentityEntity(_addressEntity) {\n        entities[_addressEntity].name = _name;\n    }\n    \n    /**\n    * @dev function that allows you to change the CIF of the entity\n    * @param _addressEntity the address that identify the entity in the blockchain\n    * @param _cif the new cif of the entity\n    */\n    function setCifEntity(address _addressEntity, string _cif) public onlyIdentityEntity(_addressEntity) {\n        entities[_addressEntity].cif = _cif;\n    }\n    \n    /**\n    * @dev function that allows you to change the Url that contains the logo of the entity\n    * @param _addressEntity the address that identify the entity in the blockchain\n    * @param _url_logo the new url that contains the logo of the entity\n    */\n    function setUrlLogo(address _addressEntity, string _url_logo) public onlyIdentityEntity(_addressEntity) {\n        entities[_addressEntity].url_logo = _url_logo;\n    }\n    \n    /**\n    * @dev function that allows you to change the Url that contains the Alastria ID of the entity\n    * @param _addressEntity the address that identify the entity in the blockchain\n    * @param _url_createAID the new url that contains the Alastria ID of the entity\n    */\n    function setUrlCreateAID(address _addressEntity, string _url_createAID) public onlyIdentityEntity(_addressEntity) {\n        entities[_addressEntity].url_createAID = _url_createAID;\n    }\n    \n    /**\n    * @dev function that allows you to change the Url that contains the AOA of the entity\n    * @param _addressEntity the address that identify the entity in the blockchain\n    * @param _url_AOA the new url that contains the AOA of the entity\n    */\n    function setUrlAOA(address _addressEntity, string _url_AOA) public onlyIdentityEntity(_addressEntity) {\n        entities[_addressEntity].url_AOA = _url_AOA;\n    }\n\n    /**\n    * @dev function that returns all the information of a entity\n    * @param _addressEntity the address that identify the entity in the blockchain\n    * @return _name, _cif, _url_logo, _url_createAID, _url_AOA, _active of the entity you pass to the functions as a parameter\n    */\n    function getEntity(address _addressEntity) public view returns(string _name, string _cif, string _url_logo, string _url_createAID, string _url_AOA, bool _active){\n        _name = entities[_addressEntity].name;\n        _cif = entities[_addressEntity].cif;\n        _url_logo = entities[_addressEntity].url_logo;\n        _url_createAID = entities[_addressEntity].url_createAID;\n        _url_AOA = entities[_addressEntity].url_AOA;\n        _active = entities[_addressEntity].active;\n    }\n    \n    /**\n    * @dev function that return the list of entities that are registered in the blockchain\n    * @return array of address of entities\n    */\n    function entitiesList() public view returns(address[]){\n        return listEntities;\n    } \n\n}\n",
  "sourcePath": "/Users/santiago/Documents/Teleco/Blockchain/Proyectos/5 - AlastriaIdentity/Pruebas_Quorum/Trabajo/monitor/AlaIdMonitor/contracts/identityManager/AlastriaIdentityEntity.sol",
  "compiler": {
    "name": "solc",
    "version": "0.4.23+commit.124ca40d.Emscripten.clang"
  },
  "schemaVersion": "3.4.1",
  "updatedAt": "2021-05-26T14:23:06.063Z",
  "devdoc": {
    "methods": {
      "addEntity(address,string,string,string,string,string,bool)": {
        "details": "function that allows you to add a entity to the entities mapping",
        "params": {
          "_active": "a flag that shows if a entity is active or not",
          "_addressEntity": "the address that identify the entity in the blockchain",
          "_cif": "the cif of the entity",
          "_name": "the name of the entity",
          "_url_AOA": "the url that contains the AOA of the entity",
          "_url_createAID": "the url that contains the alastria ID of the entity",
          "_url_logo": "the url that contains the logo of the entity"
        }
      },
      "entitiesList()": {
        "details": "function that return the list of entities that are registered in the blockchain",
        "return": "array of address of entities"
      },
      "getEntity(address)": {
        "details": "function that returns all the information of a entity",
        "params": {
          "_addressEntity": "the address that identify the entity in the blockchain"
        },
        "return": "_name, _cif, _url_logo, _url_createAID, _url_AOA, _active of the entity you pass to the functions as a parameter"
      },
      "setCifEntity(address,string)": {
        "details": "function that allows you to change the CIF of the entity",
        "params": {
          "_addressEntity": "the address that identify the entity in the blockchain",
          "_cif": "the new cif of the entity"
        }
      },
      "setNameEntity(address,string)": {
        "details": "function that allows you to change the name of the entity",
        "params": {
          "_addressEntity": "the address that identify the entity in the blockchain",
          "_name": "the new name of the entity"
        }
      },
      "setUrlAOA(address,string)": {
        "details": "function that allows you to change the Url that contains the AOA of the entity",
        "params": {
          "_addressEntity": "the address that identify the entity in the blockchain",
          "_url_AOA": "the new url that contains the AOA of the entity"
        }
      },
      "setUrlCreateAID(address,string)": {
        "details": "function that allows you to change the Url that contains the Alastria ID of the entity",
        "params": {
          "_addressEntity": "the address that identify the entity in the blockchain",
          "_url_createAID": "the new url that contains the Alastria ID of the entity"
        }
      },
      "setUrlLogo(address,string)": {
        "details": "function that allows you to change the Url that contains the logo of the entity",
        "params": {
          "_addressEntity": "the address that identify the entity in the blockchain",
          "_url_logo": "the new url that contains the logo of the entity"
        }
      }
    }
  },
  "userdoc": {
    "methods": {}
  }
}