{
  "contractName": "Eidas",
  "abi": [
    {
      "constant": true,
      "inputs": [
        {
          "name": "_eidasLevel",
          "type": "Eidas.EidasLevel"
        }
      ],
      "name": "atLeastLow",
      "outputs": [
        {
          "name": "",
          "type": "bool"
        }
      ],
      "payable": false,
      "stateMutability": "pure",
      "type": "function"
    },
    {
      "constant": true,
      "inputs": [
        {
          "name": "_eidasLevel",
          "type": "Eidas.EidasLevel"
        },
        {
          "name": "_level",
          "type": "Eidas.EidasLevel"
        }
      ],
      "name": "atLeast",
      "outputs": [
        {
          "name": "",
          "type": "bool"
        }
      ],
      "payable": false,
      "stateMutability": "pure",
      "type": "function"
    }
  ],
  "bytecode": "0x61014f610030600b82828239805160001a6073146000811461002057610022565bfe5b5030600052607381538281f3007300000000000000000000000000000000000000003014608060405260043610610063576000357c0100000000000000000000000000000000000000000000000000000000900463ffffffff1680630fa78bf714610068578063f2641483146100a3575b600080fd5b610089600480360381019080803560ff1690602001909291905050506100eb565b604051808215151515815260200191505060405180910390f35b6100d1600480360381019080803560ff169060200190929190803560ff1690602001909291905050506100ff565b604051808215151515815260200191505060405180910390f35b60006100f88260026100ff565b9050919050565b600081600481111561010d57fe5b83600481111561011957fe5b10159050929150505600a165627a7a72305820368dc6d4985da63facc8adf439d7d915a647b3791179bd8e21320be23f3cce440029",
  "source": "pragma solidity 0.4.23;\n\nlibrary Eidas {\n\n    enum EidasLevel { Null, Reputational, Low, Substantial, High }\n\n    /*function onlyReputational(EidasLevel _eidasLevel) returns (bool) {\n        return (_eidasLevel == EidasLevel.Reputational);\n    }\n\n    function onlyLow(EidasLevel _eidasLevel) returns (bool) {\n        return (_eidasLevel == EidasLevel.Low);\n    }\n\n    function onlySubstantial(EidasLevel _eidasLevel) returns (bool) {\n        return (_eidasLevel == EidasLevel.Substantial);\n    }\n\n    function onlyHigh(EidasLevel _eidasLevel) returns (bool) {\n        return (_eidasLevel == EidasLevel.High);\n    }*/\n\n    function atLeastLow(EidasLevel _eidasLevel) public pure returns (bool) {\n        return atLeast(_eidasLevel, EidasLevel.Low);\n    }\n\n    /*function alLeastSubstantial(EidasLevel _eidasLevel) returns (bool) {\n        return atLeast(_eidasLevel, EidasLevel.Substantial);\n    }\n\n    function alLeastHigh(EidasLevel _eidasLevel) returns (bool) {\n        return atLeast(_eidasLevel, EidasLevel.High);\n    }*/\n\n    function atLeast(EidasLevel _eidasLevel, EidasLevel _level) public pure returns (bool) {\n        return (uint(_eidasLevel) >= uint(_level));\n    }\n\n    /*function notNull(EidasLevel _eidasLevel) returns (bool) {\n        return _eidasLevel != EidasLevel.Null;\n    }\n\n    function toEidasLevel(uint _level) returns (EidasLevel) {\n        return EidasLevel(_level);\n    }*/\n\n}\n",
  "sourcePath": "/Users/santiago/Documents/Teleco/Blockchain/Proyectos/5 - AlastriaIdentity/Pruebas_Quorum/Trabajo/monitor/AlaIdMonitor/contracts/libs/Eidas.sol",
  "compiler": {
    "name": "solc",
    "version": "0.4.23+commit.124ca40d.Emscripten.clang"
  },
  "schemaVersion": "3.4.1",
  "updatedAt": "2021-05-26T14:23:06.071Z",
  "devdoc": {
    "methods": {}
  },
  "userdoc": {
    "methods": {}
  }
}